{
	"NFTcontract.sol": {
		"SimpleNFT": {
			"abi": [
				{
					"inputs": [
						{
							"internalType": "uint256",
							"name": "_tokenId",
							"type": "uint256"
						}
					],
					"name": "mint",
					"outputs": [],
					"stateMutability": "nonpayable",
					"type": "function"
				},
				{
					"inputs": [
						{
							"internalType": "uint256",
							"name": "_tokenId",
							"type": "uint256"
						}
					],
					"name": "ownerOf",
					"outputs": [
						{
							"internalType": "address",
							"name": "",
							"type": "address"
						}
					],
					"stateMutability": "view",
					"type": "function"
				},
				{
					"inputs": [
						{
							"internalType": "address",
							"name": "_operator",
							"type": "address"
						},
						{
							"internalType": "bool",
							"name": "_approved",
							"type": "bool"
						}
					],
					"name": "setApprovalForAll",
					"outputs": [],
					"stateMutability": "nonpayable",
					"type": "function"
				},
				{
					"inputs": [
						{
							"internalType": "uint256",
							"name": "_tokenId",
							"type": "uint256"
						}
					],
					"name": "tokenURI",
					"outputs": [
						{
							"internalType": "string",
							"name": "",
							"type": "string"
						}
					],
					"stateMutability": "view",
					"type": "function"
				},
				{
					"inputs": [
						{
							"internalType": "address",
							"name": "_from",
							"type": "address"
						},
						{
							"internalType": "address",
							"name": "_to",
							"type": "address"
						},
						{
							"internalType": "uint256",
							"name": "_tokenId",
							"type": "uint256"
						}
					],
					"name": "transferFrom",
					"outputs": [],
					"stateMutability": "nonpayable",
					"type": "function"
				}
			],
			"devdoc": {
				"kind": "dev",
				"methods": {},
				"version": 1
			},
			"evm": {
				"assembly": "    /* \"NFTcontract.sol\":115:1567  contract SimpleNFT {... */\n  mstore(0x40, 0x80)\n    /* \"NFTcontract.sol\":292:336  string baseURL = \"http://example.com/images\" */\n  mload(0x40)\n  dup1\n  0x40\n  add\n  0x40\n  mstore\n  dup1\n  0x19\n  dup2\n  mstore\n  0x20\n  add\n  0x687474703a2f2f6578616d706c652e636f6d2f696d6167657300000000000000\n  dup2\n  mstore\n  pop\n  0x02\n  swap1\n  dup2\n  tag_1\n  swap2\n  swap1\n  tag_2\n  jump\t// in\ntag_1:\n  pop\n    /* \"NFTcontract.sol\":115:1567  contract SimpleNFT {... */\n  callvalue\n  dup1\n  iszero\n  tag_3\n  jumpi\n  0x00\n  dup1\n  revert\ntag_3:\n  pop\n  jump(tag_4)\n    /* \"#utility.yul\":7:106   */\ntag_5:\n    /* \"#utility.yul\":59:65   */\n  0x00\n    /* \"#utility.yul\":93:98   */\n  dup2\n    /* \"#utility.yul\":87:99   */\n  mload\n    /* \"#utility.yul\":77:99   */\n  swap1\n  pop\n    /* \"#utility.yul\":7:106   */\n  swap2\n  swap1\n  pop\n  jump\t// out\n    /* \"#utility.yul\":112:292   */\ntag_6:\n    /* \"#utility.yul\":160:237   */\n  0x4e487b7100000000000000000000000000000000000000000000000000000000\n    /* \"#utility.yul\":157:158   */\n  0x00\n    /* \"#utility.yul\":150:238   */\n  mstore\n    /* \"#utility.yul\":257:261   */\n  0x41\n    /* \"#utility.yul\":254:255   */\n  0x04\n    /* \"#utility.yul\":247:262   */\n  mstore\n    /* \"#utility.yul\":281:285   */\n  0x24\n    /* \"#utility.yul\":278:279   */\n  0x00\n    /* \"#utility.yul\":271:286   */\n  revert\n    /* \"#utility.yul\":298:478   */\ntag_7:\n    /* \"#utility.yul\":346:423   */\n  0x4e487b7100000000000000000000000000000000000000000000000000000000\n    /* \"#utility.yul\":343:344   */\n  0x00\n    /* \"#utility.yul\":336:424   */\n  mstore\n    /* \"#utility.yul\":443:447   */\n  0x22\n    /* \"#utility.yul\":440:441   */\n  0x04\n    /* \"#utility.yul\":433:448   */\n  mstore\n    /* \"#utility.yul\":467:471   */\n  0x24\n    /* \"#utility.yul\":464:465   */\n  0x00\n    /* \"#utility.yul\":457:472   */\n  revert\n    /* \"#utility.yul\":484:804   */\ntag_8:\n    /* \"#utility.yul\":528:534   */\n  0x00\n    /* \"#utility.yul\":565:566   */\n  0x02\n    /* \"#utility.yul\":559:563   */\n  dup3\n    /* \"#utility.yul\":555:567   */\n  div\n    /* \"#utility.yul\":545:567   */\n  swap1\n  pop\n    /* \"#utility.yul\":612:613   */\n  0x01\n    /* \"#utility.yul\":606:610   */\n  dup3\n    /* \"#utility.yul\":602:614   */\n  and\n    /* \"#utility.yul\":633:651   */\n  dup1\n    /* \"#utility.yul\":623:704   */\n  tag_30\n  jumpi\n    /* \"#utility.yul\":689:693   */\n  0x7f\n    /* \"#utility.yul\":681:687   */\n  dup3\n    /* \"#utility.yul\":677:694   */\n  and\n    /* \"#utility.yul\":667:694   */\n  swap2\n  pop\n    /* \"#utility.yul\":623:704   */\ntag_30:\n    /* \"#utility.yul\":751:753   */\n  0x20\n    /* \"#utility.yul\":743:749   */\n  dup3\n    /* \"#utility.yul\":740:754   */\n  lt\n    /* \"#utility.yul\":720:738   */\n  dup2\n    /* \"#utility.yul\":717:755   */\n  sub\n    /* \"#utility.yul\":714:798   */\n  tag_31\n  jumpi\n    /* \"#utility.yul\":770:788   */\n  tag_32\n  tag_7\n  jump\t// in\ntag_32:\n    /* \"#utility.yul\":714:798   */\ntag_31:\n    /* \"#utility.yul\":535:804   */\n  pop\n    /* \"#utility.yul\":484:804   */\n  swap2\n  swap1\n  pop\n  jump\t// out\n    /* \"#utility.yul\":810:951   */\ntag_9:\n    /* \"#utility.yul\":859:863   */\n  0x00\n    /* \"#utility.yul\":882:885   */\n  dup2\n    /* \"#utility.yul\":874:885   */\n  swap1\n  pop\n    /* \"#utility.yul\":905:908   */\n  dup2\n    /* \"#utility.yul\":902:903   */\n  0x00\n    /* \"#utility.yul\":895:909   */\n  mstore\n    /* \"#utility.yul\":939:943   */\n  0x20\n    /* \"#utility.yul\":936:937   */\n  0x00\n    /* \"#utility.yul\":926:944   */\n  keccak256\n    /* \"#utility.yul\":918:944   */\n  swap1\n  pop\n    /* \"#utility.yul\":810:951   */\n  swap2\n  swap1\n  pop\n  jump\t// out\n    /* \"#utility.yul\":957:1050   */\ntag_10:\n    /* \"#utility.yul\":994:1000   */\n  0x00\n    /* \"#utility.yul\":1041:1043   */\n  0x20\n    /* \"#utility.yul\":1036:1038   */\n  0x1f\n    /* \"#utility.yul\":1029:1034   */\n  dup4\n    /* \"#utility.yul\":1025:1039   */\n  add\n    /* \"#utility.yul\":1021:1044   */\n  div\n    /* \"#utility.yul\":1011:1044   */\n  swap1\n  pop\n    /* \"#utility.yul\":957:1050   */\n  swap2\n  swap1\n  pop\n  jump\t// out\n    /* \"#utility.yul\":1056:1163   */\ntag_11:\n    /* \"#utility.yul\":1100:1108   */\n  0x00\n    /* \"#utility.yul\":1150:1155   */\n  dup3\n    /* \"#utility.yul\":1144:1148   */\n  dup3\n    /* \"#utility.yul\":1140:1156   */\n  shl\n    /* \"#utility.yul\":1119:1156   */\n  swap1\n  pop\n    /* \"#utility.yul\":1056:1163   */\n  swap3\n  swap2\n  pop\n  pop\n  jump\t// out\n    /* \"#utility.yul\":1169:1562   */\ntag_12:\n    /* \"#utility.yul\":1238:1244   */\n  0x00\n    /* \"#utility.yul\":1288:1289   */\n  0x08\n    /* \"#utility.yul\":1276:1286   */\n  dup4\n    /* \"#utility.yul\":1272:1290   */\n  mul\n    /* \"#utility.yul\":1311:1408   */\n  tag_37\n    /* \"#utility.yul\":1341:1407   */\n  0xffffffffffffffffffffffffffffffffffffffffffffffffffffffffffffffff\n    /* \"#utility.yul\":1330:1339   */\n  dup3\n    /* \"#utility.yul\":1311:1408   */\n  tag_11\n  jump\t// in\ntag_37:\n    /* \"#utility.yul\":1429:1468   */\n  tag_38\n    /* \"#utility.yul\":1459:1467   */\n  dup7\n    /* \"#utility.yul\":1448:1457   */\n  dup4\n    /* \"#utility.yul\":1429:1468   */\n  tag_11\n  jump\t// in\ntag_38:\n    /* \"#utility.yul\":1417:1468   */\n  swap6\n  pop\n    /* \"#utility.yul\":1501:1505   */\n  dup1\n    /* \"#utility.yul\":1497:1506   */\n  not\n    /* \"#utility.yul\":1490:1495   */\n  dup5\n    /* \"#utility.yul\":1486:1507   */\n  and\n    /* \"#utility.yul\":1477:1507   */\n  swap4\n  pop\n    /* \"#utility.yul\":1550:1554   */\n  dup1\n    /* \"#utility.yul\":1540:1548   */\n  dup7\n    /* \"#utility.yul\":1536:1555   */\n  and\n    /* \"#utility.yul\":1529:1534   */\n  dup5\n    /* \"#utility.yul\":1526:1556   */\n  or\n    /* \"#utility.yul\":1516:1556   */\n  swap3\n  pop\n    /* \"#utility.yul\":1245:1562   */\n  pop\n  pop\n    /* \"#utility.yul\":1169:1562   */\n  swap4\n  swap3\n  pop\n  pop\n  pop\n  jump\t// out\n    /* \"#utility.yul\":1568:1645   */\ntag_13:\n    /* \"#utility.yul\":1605:1612   */\n  0x00\n    /* \"#utility.yul\":1634:1639   */\n  dup2\n    /* \"#utility.yul\":1623:1639   */\n  swap1\n  pop\n    /* \"#utility.yul\":1568:1645   */\n  swap2\n  swap1\n  pop\n  jump\t// out\n    /* \"#utility.yul\":1651:1711   */\ntag_14:\n    /* \"#utility.yul\":1679:1682   */\n  0x00\n    /* \"#utility.yul\":1700:1705   */\n  dup2\n    /* \"#utility.yul\":1693:1705   */\n  swap1\n  pop\n    /* \"#utility.yul\":1651:1711   */\n  swap2\n  swap1\n  pop\n  jump\t// out\n    /* \"#utility.yul\":1717:1859   */\ntag_15:\n    /* \"#utility.yul\":1767:1776   */\n  0x00\n    /* \"#utility.yul\":1800:1853   */\n  tag_42\n    /* \"#utility.yul\":1818:1852   */\n  tag_43\n    /* \"#utility.yul\":1827:1851   */\n  tag_44\n    /* \"#utility.yul\":1845:1850   */\n  dup5\n    /* \"#utility.yul\":1827:1851   */\n  tag_13\n  jump\t// in\ntag_44:\n    /* \"#utility.yul\":1818:1852   */\n  tag_14\n  jump\t// in\ntag_43:\n    /* \"#utility.yul\":1800:1853   */\n  tag_13\n  jump\t// in\ntag_42:\n    /* \"#utility.yul\":1787:1853   */\n  swap1\n  pop\n    /* \"#utility.yul\":1717:1859   */\n  swap2\n  swap1\n  pop\n  jump\t// out\n    /* \"#utility.yul\":1865:1940   */\ntag_16:\n    /* \"#utility.yul\":1908:1911   */\n  0x00\n    /* \"#utility.yul\":1929:1934   */\n  dup2\n    /* \"#utility.yul\":1922:1934   */\n  swap1\n  pop\n    /* \"#utility.yul\":1865:1940   */\n  swap2\n  swap1\n  pop\n  jump\t// out\n    /* \"#utility.yul\":1946:2215   */\ntag_17:\n    /* \"#utility.yul\":2056:2095   */\n  tag_47\n    /* \"#utility.yul\":2087:2094   */\n  dup4\n    /* \"#utility.yul\":2056:2095   */\n  tag_15\n  jump\t// in\ntag_47:\n    /* \"#utility.yul\":2117:2208   */\n  tag_48\n    /* \"#utility.yul\":2166:2207   */\n  tag_49\n    /* \"#utility.yul\":2190:2206   */\n  dup3\n    /* \"#utility.yul\":2166:2207   */\n  tag_16\n  jump\t// in\ntag_49:\n    /* \"#utility.yul\":2158:2164   */\n  dup5\n    /* \"#utility.yul\":2151:2155   */\n  dup5\n    /* \"#utility.yul\":2145:2156   */\n  sload\n    /* \"#utility.yul\":2117:2208   */\n  tag_12\n  jump\t// in\ntag_48:\n    /* \"#utility.yul\":2111:2115   */\n  dup3\n    /* \"#utility.yul\":2104:2209   */\n  sstore\n    /* \"#utility.yul\":2022:2215   */\n  pop\n    /* \"#utility.yul\":1946:2215   */\n  pop\n  pop\n  pop\n  jump\t// out\n    /* \"#utility.yul\":2221:2294   */\ntag_18:\n    /* \"#utility.yul\":2266:2269   */\n  0x00\n    /* \"#utility.yul\":2221:2294   */\n  swap1\n  jump\t// out\n    /* \"#utility.yul\":2300:2489   */\ntag_19:\n    /* \"#utility.yul\":2377:2409   */\n  tag_52\n  tag_18\n  jump\t// in\ntag_52:\n    /* \"#utility.yul\":2418:2483   */\n  tag_53\n    /* \"#utility.yul\":2476:2482   */\n  dup2\n    /* \"#utility.yul\":2468:2474   */\n  dup5\n    /* \"#utility.yul\":2462:2466   */\n  dup5\n    /* \"#utility.yul\":2418:2483   */\n  tag_17\n  jump\t// in\ntag_53:\n    /* \"#utility.yul\":2353:2489   */\n  pop\n    /* \"#utility.yul\":2300:2489   */\n  pop\n  pop\n  jump\t// out\n    /* \"#utility.yul\":2495:2681   */\ntag_20:\n    /* \"#utility.yul\":2555:2675   */\ntag_55:\n    /* \"#utility.yul\":2572:2575   */\n  dup2\n    /* \"#utility.yul\":2565:2570   */\n  dup2\n    /* \"#utility.yul\":2562:2576   */\n  lt\n    /* \"#utility.yul\":2555:2675   */\n  iszero\n  tag_57\n  jumpi\n    /* \"#utility.yul\":2626:2665   */\n  tag_58\n    /* \"#utility.yul\":2663:2664   */\n  0x00\n    /* \"#utility.yul\":2656:2661   */\n  dup3\n    /* \"#utility.yul\":2626:2665   */\n  tag_19\n  jump\t// in\ntag_58:\n    /* \"#utility.yul\":2599:2600   */\n  0x01\n    /* \"#utility.yul\":2592:2597   */\n  dup2\n    /* \"#utility.yul\":2588:2601   */\n  add\n    /* \"#utility.yul\":2579:2601   */\n  swap1\n  pop\n    /* \"#utility.yul\":2555:2675   */\n  jump(tag_55)\ntag_57:\n    /* \"#utility.yul\":2495:2681   */\n  pop\n  pop\n  jump\t// out\n    /* \"#utility.yul\":2687:3230   */\ntag_21:\n    /* \"#utility.yul\":2788:2790   */\n  0x1f\n    /* \"#utility.yul\":2783:2786   */\n  dup3\n    /* \"#utility.yul\":2780:2791   */\n  gt\n    /* \"#utility.yul\":2777:3223   */\n  iszero\n  tag_60\n  jumpi\n    /* \"#utility.yul\":2822:2860   */\n  tag_61\n    /* \"#utility.yul\":2854:2859   */\n  dup2\n    /* \"#utility.yul\":2822:2860   */\n  tag_9\n  jump\t// in\ntag_61:\n    /* \"#utility.yul\":2906:2935   */\n  tag_62\n    /* \"#utility.yul\":2924:2934   */\n  dup5\n    /* \"#utility.yul\":2906:2935   */\n  tag_10\n  jump\t// in\ntag_62:\n    /* \"#utility.yul\":2896:2904   */\n  dup2\n    /* \"#utility.yul\":2892:2936   */\n  add\n    /* \"#utility.yul\":3089:3091   */\n  0x20\n    /* \"#utility.yul\":3077:3087   */\n  dup6\n    /* \"#utility.yul\":3074:3092   */\n  lt\n    /* \"#utility.yul\":3071:3120   */\n  iszero\n  tag_63\n  jumpi\n    /* \"#utility.yul\":3110:3118   */\n  dup2\n    /* \"#utility.yul\":3095:3118   */\n  swap1\n  pop\n    /* \"#utility.yul\":3071:3120   */\ntag_63:\n    /* \"#utility.yul\":3133:3213   */\n  tag_64\n    /* \"#utility.yul\":3189:3211   */\n  tag_65\n    /* \"#utility.yul\":3207:3210   */\n  dup6\n    /* \"#utility.yul\":3189:3211   */\n  tag_10\n  jump\t// in\ntag_65:\n    /* \"#utility.yul\":3179:3187   */\n  dup4\n    /* \"#utility.yul\":3175:3212   */\n  add\n    /* \"#utility.yul\":3162:3173   */\n  dup3\n    /* \"#utility.yul\":3133:3213   */\n  tag_20\n  jump\t// in\ntag_64:\n    /* \"#utility.yul\":2792:3223   */\n  pop\n  pop\n    /* \"#utility.yul\":2777:3223   */\ntag_60:\n    /* \"#utility.yul\":2687:3230   */\n  pop\n  pop\n  pop\n  jump\t// out\n    /* \"#utility.yul\":3236:3353   */\ntag_22:\n    /* \"#utility.yul\":3290:3298   */\n  0x00\n    /* \"#utility.yul\":3340:3345   */\n  dup3\n    /* \"#utility.yul\":3334:3338   */\n  dup3\n    /* \"#utility.yul\":3330:3346   */\n  shr\n    /* \"#utility.yul\":3309:3346   */\n  swap1\n  pop\n    /* \"#utility.yul\":3236:3353   */\n  swap3\n  swap2\n  pop\n  pop\n  jump\t// out\n    /* \"#utility.yul\":3359:3528   */\ntag_23:\n    /* \"#utility.yul\":3403:3409   */\n  0x00\n    /* \"#utility.yul\":3436:3487   */\n  tag_68\n    /* \"#utility.yul\":3484:3485   */\n  0x00\n    /* \"#utility.yul\":3480:3486   */\n  not\n    /* \"#utility.yul\":3472:3477   */\n  dup5\n    /* \"#utility.yul\":3469:3470   */\n  0x08\n    /* \"#utility.yul\":3465:3478   */\n  mul\n    /* \"#utility.yul\":3436:3487   */\n  tag_22\n  jump\t// in\ntag_68:\n    /* \"#utility.yul\":3432:3488   */\n  not\n    /* \"#utility.yul\":3517:3521   */\n  dup1\n    /* \"#utility.yul\":3511:3515   */\n  dup4\n    /* \"#utility.yul\":3507:3522   */\n  and\n    /* \"#utility.yul\":3497:3522   */\n  swap2\n  pop\n    /* \"#utility.yul\":3410:3528   */\n  pop\n    /* \"#utility.yul\":3359:3528   */\n  swap3\n  swap2\n  pop\n  pop\n  jump\t// out\n    /* \"#utility.yul\":3533:3828   */\ntag_24:\n    /* \"#utility.yul\":3609:3613   */\n  0x00\n    /* \"#utility.yul\":3755:3784   */\n  tag_70\n    /* \"#utility.yul\":3780:3783   */\n  dup4\n    /* \"#utility.yul\":3774:3778   */\n  dup4\n    /* \"#utility.yul\":3755:3784   */\n  tag_23\n  jump\t// in\ntag_70:\n    /* \"#utility.yul\":3747:3784   */\n  swap2\n  pop\n    /* \"#utility.yul\":3817:3820   */\n  dup3\n    /* \"#utility.yul\":3814:3815   */\n  0x02\n    /* \"#utility.yul\":3810:3821   */\n  mul\n    /* \"#utility.yul\":3804:3808   */\n  dup3\n    /* \"#utility.yul\":3801:3822   */\n  or\n    /* \"#utility.yul\":3793:3822   */\n  swap1\n  pop\n    /* \"#utility.yul\":3533:3828   */\n  swap3\n  swap2\n  pop\n  pop\n  jump\t// out\n    /* \"#utility.yul\":3833:5228   */\ntag_2:\n    /* \"#utility.yul\":3950:3987   */\n  tag_72\n    /* \"#utility.yul\":3983:3986   */\n  dup3\n    /* \"#utility.yul\":3950:3987   */\n  tag_5\n  jump\t// in\ntag_72:\n    /* \"#utility.yul\":4052:4070   */\n  0xffffffffffffffff\n    /* \"#utility.yul\":4044:4050   */\n  dup2\n    /* \"#utility.yul\":4041:4071   */\n  gt\n    /* \"#utility.yul\":4038:4094   */\n  iszero\n  tag_73\n  jumpi\n    /* \"#utility.yul\":4074:4092   */\n  tag_74\n  tag_6\n  jump\t// in\ntag_74:\n    /* \"#utility.yul\":4038:4094   */\ntag_73:\n    /* \"#utility.yul\":4118:4156   */\n  tag_75\n    /* \"#utility.yul\":4150:4154   */\n  dup3\n    /* \"#utility.yul\":4144:4155   */\n  sload\n    /* \"#utility.yul\":4118:4156   */\n  tag_8\n  jump\t// in\ntag_75:\n    /* \"#utility.yul\":4203:4270   */\n  tag_76\n    /* \"#utility.yul\":4263:4269   */\n  dup3\n    /* \"#utility.yul\":4255:4261   */\n  dup3\n    /* \"#utility.yul\":4249:4253   */\n  dup6\n    /* \"#utility.yul\":4203:4270   */\n  tag_21\n  jump\t// in\ntag_76:\n    /* \"#utility.yul\":4297:4298   */\n  0x00\n    /* \"#utility.yul\":4321:4325   */\n  0x20\n    /* \"#utility.yul\":4308:4325   */\n  swap1\n  pop\n    /* \"#utility.yul\":4353:4355   */\n  0x1f\n    /* \"#utility.yul\":4345:4351   */\n  dup4\n    /* \"#utility.yul\":4342:4356   */\n  gt\n    /* \"#utility.yul\":4370:4371   */\n  0x01\n    /* \"#utility.yul\":4365:4983   */\n  dup2\n  eq\n  tag_78\n  jumpi\n    /* \"#utility.yul\":5027:5028   */\n  0x00\n    /* \"#utility.yul\":5044:5050   */\n  dup5\n    /* \"#utility.yul\":5041:5118   */\n  iszero\n  tag_79\n  jumpi\n    /* \"#utility.yul\":5093:5102   */\n  dup3\n    /* \"#utility.yul\":5088:5091   */\n  dup8\n    /* \"#utility.yul\":5084:5103   */\n  add\n    /* \"#utility.yul\":5078:5104   */\n  mload\n    /* \"#utility.yul\":5069:5104   */\n  swap1\n  pop\n    /* \"#utility.yul\":5041:5118   */\ntag_79:\n    /* \"#utility.yul\":5144:5211   */\n  tag_80\n    /* \"#utility.yul\":5204:5210   */\n  dup6\n    /* \"#utility.yul\":5197:5202   */\n  dup3\n    /* \"#utility.yul\":5144:5211   */\n  tag_24\n  jump\t// in\ntag_80:\n    /* \"#utility.yul\":5138:5142   */\n  dup7\n    /* \"#utility.yul\":5131:5212   */\n  sstore\n    /* \"#utility.yul\":5000:5222   */\n  pop\n    /* \"#utility.yul\":4335:5222   */\n  jump(tag_77)\n    /* \"#utility.yul\":4365:4983   */\ntag_78:\n    /* \"#utility.yul\":4417:4421   */\n  0x1f\n    /* \"#utility.yul\":4413:4422   */\n  not\n    /* \"#utility.yul\":4405:4411   */\n  dup5\n    /* \"#utility.yul\":4401:4423   */\n  and\n    /* \"#utility.yul\":4451:4488   */\n  tag_81\n    /* \"#utility.yul\":4483:4487   */\n  dup7\n    /* \"#utility.yul\":4451:4488   */\n  tag_9\n  jump\t// in\ntag_81:\n    /* \"#utility.yul\":4510:4511   */\n  0x00\n    /* \"#utility.yul\":4524:4732   */\ntag_82:\n    /* \"#utility.yul\":4538:4545   */\n  dup3\n    /* \"#utility.yul\":4535:4536   */\n  dup2\n    /* \"#utility.yul\":4532:4546   */\n  lt\n    /* \"#utility.yul\":4524:4732   */\n  iszero\n  tag_84\n  jumpi\n    /* \"#utility.yul\":4617:4626   */\n  dup5\n    /* \"#utility.yul\":4612:4615   */\n  dup10\n    /* \"#utility.yul\":4608:4627   */\n  add\n    /* \"#utility.yul\":4602:4628   */\n  mload\n    /* \"#utility.yul\":4594:4600   */\n  dup3\n    /* \"#utility.yul\":4587:4629   */\n  sstore\n    /* \"#utility.yul\":4668:4669   */\n  0x01\n    /* \"#utility.yul\":4660:4666   */\n  dup3\n    /* \"#utility.yul\":4656:4670   */\n  add\n    /* \"#utility.yul\":4646:4670   */\n  swap2\n  pop\n    /* \"#utility.yul\":4715:4717   */\n  0x20\n    /* \"#utility.yul\":4704:4713   */\n  dup6\n    /* \"#utility.yul\":4700:4718   */\n  add\n    /* \"#utility.yul\":4687:4718   */\n  swap5\n  pop\n    /* \"#utility.yul\":4561:4565   */\n  0x20\n    /* \"#utility.yul\":4558:4559   */\n  dup2\n    /* \"#utility.yul\":4554:4566   */\n  add\n    /* \"#utility.yul\":4549:4566   */\n  swap1\n  pop\n    /* \"#utility.yul\":4524:4732   */\n  jump(tag_82)\ntag_84:\n    /* \"#utility.yul\":4760:4766   */\n  dup7\n    /* \"#utility.yul\":4751:4758   */\n  dup4\n    /* \"#utility.yul\":4748:4767   */\n  lt\n    /* \"#utility.yul\":4745:4924   */\n  iszero\n  tag_85\n  jumpi\n    /* \"#utility.yul\":4818:4827   */\n  dup5\n    /* \"#utility.yul\":4813:4816   */\n  dup10\n    /* \"#utility.yul\":4809:4828   */\n  add\n    /* \"#utility.yul\":4803:4829   */\n  mload\n    /* \"#utility.yul\":4861:4909   */\n  tag_86\n    /* \"#utility.yul\":4903:4907   */\n  0x1f\n    /* \"#utility.yul\":4895:4901   */\n  dup10\n    /* \"#utility.yul\":4891:4908   */\n  and\n    /* \"#utility.yul\":4880:4889   */\n  dup3\n    /* \"#utility.yul\":4861:4909   */\n  tag_23\n  jump\t// in\ntag_86:\n    /* \"#utility.yul\":4853:4859   */\n  dup4\n    /* \"#utility.yul\":4846:4910   */\n  sstore\n    /* \"#utility.yul\":4768:4924   */\n  pop\n    /* \"#utility.yul\":4745:4924   */\ntag_85:\n    /* \"#utility.yul\":4970:4971   */\n  0x01\n    /* \"#utility.yul\":4966:4967   */\n  0x02\n    /* \"#utility.yul\":4958:4964   */\n  dup9\n    /* \"#utility.yul\":4954:4968   */\n  mul\n    /* \"#utility.yul\":4950:4972   */\n  add\n    /* \"#utility.yul\":4944:4948   */\n  dup9\n    /* \"#utility.yul\":4937:4973   */\n  sstore\n    /* \"#utility.yul\":4372:4983   */\n  pop\n  pop\n  pop\n    /* \"#utility.yul\":4335:5222   */\ntag_77:\n  pop\n    /* \"#utility.yul\":3925:5228   */\n  pop\n  pop\n  pop\n    /* \"#utility.yul\":3833:5228   */\n  pop\n  pop\n  jump\t// out\n    /* \"NFTcontract.sol\":115:1567  contract SimpleNFT {... */\ntag_4:\n  dataSize(sub_0)\n  dup1\n  dataOffset(sub_0)\n  0x00\n  codecopy\n  0x00\n  return\nstop\n\nsub_0: assembly {\n        /* \"NFTcontract.sol\":115:1567  contract SimpleNFT {... */\n      mstore(0x40, 0x80)\n      callvalue\n      dup1\n      iszero\n      tag_1\n      jumpi\n      0x00\n      dup1\n      revert\n    tag_1:\n      pop\n      jumpi(tag_2, lt(calldatasize, 0x04))\n      shr(0xe0, calldataload(0x00))\n      dup1\n      0x23b872dd\n      eq\n      tag_3\n      jumpi\n      dup1\n      0x6352211e\n      eq\n      tag_4\n      jumpi\n      dup1\n      0xa0712d68\n      eq\n      tag_5\n      jumpi\n      dup1\n      0xa22cb465\n      eq\n      tag_6\n      jumpi\n      dup1\n      0xc87b56dd\n      eq\n      tag_7\n      jumpi\n    tag_2:\n      0x00\n      dup1\n      revert\n        /* \"NFTcontract.sol\":780:1172  function transferFrom(address _from, address _to, uint256 _tokenId) public {... */\n    tag_3:\n      tag_8\n      0x04\n      dup1\n      calldatasize\n      sub\n      dup2\n      add\n      swap1\n      tag_9\n      swap2\n      swap1\n      tag_10\n      jump\t// in\n    tag_9:\n      tag_11\n      jump\t// in\n    tag_8:\n      stop\n        /* \"NFTcontract.sol\":580:755  function ownerOf(uint256 _tokenId) external view returns (address) {... */\n    tag_4:\n      tag_12\n      0x04\n      dup1\n      calldatasize\n      sub\n      dup2\n      add\n      swap1\n      tag_13\n      swap2\n      swap1\n      tag_14\n      jump\t// in\n    tag_13:\n      tag_15\n      jump\t// in\n    tag_12:\n      mload(0x40)\n      tag_16\n      swap2\n      swap1\n      tag_17\n      jump\t// in\n    tag_16:\n      mload(0x40)\n      dup1\n      swap2\n      sub\n      swap1\n      return\n        /* \"NFTcontract.sol\":362:574  function mint (uint256 _tokenId) external {... */\n    tag_5:\n      tag_18\n      0x04\n      dup1\n      calldatasize\n      sub\n      dup2\n      add\n      swap1\n      tag_19\n      swap2\n      swap1\n      tag_14\n      jump\t// in\n    tag_19:\n      tag_20\n      jump\t// in\n    tag_18:\n      stop\n        /* \"NFTcontract.sol\":1429:1564  function setApprovalForAll(address _operator, bool _approved) external {... */\n    tag_6:\n      tag_21\n      0x04\n      dup1\n      calldatasize\n      sub\n      dup2\n      add\n      swap1\n      tag_22\n      swap2\n      swap1\n      tag_23\n      jump\t// in\n    tag_22:\n      tag_24\n      jump\t// in\n    tag_21:\n      stop\n        /* \"NFTcontract.sol\":1178:1412  function tokenURI(uint256 _tokenId) external view returns (string memory){... */\n    tag_7:\n      tag_25\n      0x04\n      dup1\n      calldatasize\n      sub\n      dup2\n      add\n      swap1\n      tag_26\n      swap2\n      swap1\n      tag_14\n      jump\t// in\n    tag_26:\n      tag_27\n      jump\t// in\n    tag_25:\n      mload(0x40)\n      tag_28\n      swap2\n      swap1\n      tag_29\n      jump\t// in\n    tag_28:\n      mload(0x40)\n      dup1\n      swap2\n      sub\n      swap1\n      return\n        /* \"NFTcontract.sol\":780:1172  function transferFrom(address _from, address _to, uint256 _tokenId) public {... */\n    tag_11:\n        /* \"NFTcontract.sol\":902:903  0 */\n      0x00\n        /* \"NFTcontract.sol\":874:904  _owners[_tokenId]!= address(0) */\n      0xffffffffffffffffffffffffffffffffffffffff\n      and\n        /* \"NFTcontract.sol\":874:881  _owners */\n      0x00\n        /* \"NFTcontract.sol\":874:891  _owners[_tokenId] */\n      dup1\n        /* \"NFTcontract.sol\":882:890  _tokenId */\n      dup4\n        /* \"NFTcontract.sol\":874:891  _owners[_tokenId] */\n      dup2\n      mstore\n      0x20\n      add\n      swap1\n      dup2\n      mstore\n      0x20\n      add\n      0x00\n      keccak256\n      0x00\n      swap1\n      sload\n      swap1\n      0x0100\n      exp\n      swap1\n      div\n      0xffffffffffffffffffffffffffffffffffffffff\n      and\n        /* \"NFTcontract.sol\":874:904  _owners[_tokenId]!= address(0) */\n      0xffffffffffffffffffffffffffffffffffffffff\n      and\n      sub\n        /* \"NFTcontract.sol\":865:927  require (_owners[_tokenId]!= address(0), \"Token is not yours\") */\n      tag_31\n      jumpi\n      mload(0x40)\n      0x08c379a000000000000000000000000000000000000000000000000000000000\n      dup2\n      mstore\n      0x04\n      add\n      tag_32\n      swap1\n      tag_33\n      jump\t// in\n    tag_32:\n      mload(0x40)\n      dup1\n      swap2\n      sub\n      swap1\n      revert\n    tag_31:\n        /* \"NFTcontract.sol\":967:972  _from */\n      dup3\n        /* \"NFTcontract.sol\":946:972  _owners[_tokenId] == _from */\n      0xffffffffffffffffffffffffffffffffffffffff\n      and\n        /* \"NFTcontract.sol\":946:953  _owners */\n      0x00\n        /* \"NFTcontract.sol\":946:963  _owners[_tokenId] */\n      dup1\n        /* \"NFTcontract.sol\":954:962  _tokenId */\n      dup4\n        /* \"NFTcontract.sol\":946:963  _owners[_tokenId] */\n      dup2\n      mstore\n      0x20\n      add\n      swap1\n      dup2\n      mstore\n      0x20\n      add\n      0x00\n      keccak256\n      0x00\n      swap1\n      sload\n      swap1\n      0x0100\n      exp\n      swap1\n      div\n      0xffffffffffffffffffffffffffffffffffffffff\n      and\n        /* \"NFTcontract.sol\":946:972  _owners[_tokenId] == _from */\n      0xffffffffffffffffffffffffffffffffffffffff\n      and\n      eq\n        /* \"NFTcontract.sol\":938:992  require(_owners[_tokenId] == _from, \"Cannot Transfer\") */\n      tag_34\n      jumpi\n      mload(0x40)\n      0x08c379a000000000000000000000000000000000000000000000000000000000\n      dup2\n      mstore\n      0x04\n      add\n      tag_35\n      swap1\n      tag_36\n      jump\t// in\n    tag_35:\n      mload(0x40)\n      dup1\n      swap2\n      sub\n      swap1\n      revert\n    tag_34:\n        /* \"NFTcontract.sol\":1024:1029  _from */\n      dup3\n        /* \"NFTcontract.sol\":1010:1029  msg.sender == _from */\n      0xffffffffffffffffffffffffffffffffffffffff\n      and\n        /* \"NFTcontract.sol\":1010:1020  msg.sender */\n      caller\n        /* \"NFTcontract.sol\":1010:1029  msg.sender == _from */\n      0xffffffffffffffffffffffffffffffffffffffff\n      and\n      eq\n        /* \"NFTcontract.sol\":1010:1064  msg.sender == _from || _operatorAdd[_from][msg.sender] */\n      dup1\n      tag_37\n      jumpi\n      pop\n        /* \"NFTcontract.sol\":1033:1045  _operatorAdd */\n      0x01\n        /* \"NFTcontract.sol\":1033:1052  _operatorAdd[_from] */\n      0x00\n        /* \"NFTcontract.sol\":1046:1051  _from */\n      dup5\n        /* \"NFTcontract.sol\":1033:1052  _operatorAdd[_from] */\n      0xffffffffffffffffffffffffffffffffffffffff\n      and\n      0xffffffffffffffffffffffffffffffffffffffff\n      and\n      dup2\n      mstore\n      0x20\n      add\n      swap1\n      dup2\n      mstore\n      0x20\n      add\n      0x00\n      keccak256\n        /* \"NFTcontract.sol\":1033:1064  _operatorAdd[_from][msg.sender] */\n      0x00\n        /* \"NFTcontract.sol\":1053:1063  msg.sender */\n      caller\n        /* \"NFTcontract.sol\":1033:1064  _operatorAdd[_from][msg.sender] */\n      0xffffffffffffffffffffffffffffffffffffffff\n      and\n      0xffffffffffffffffffffffffffffffffffffffff\n      and\n      dup2\n      mstore\n      0x20\n      add\n      swap1\n      dup2\n      mstore\n      0x20\n      add\n      0x00\n      keccak256\n      0x00\n      swap1\n      sload\n      swap1\n      0x0100\n      exp\n      swap1\n      div\n      0xff\n      and\n        /* \"NFTcontract.sol\":1010:1064  msg.sender == _from || _operatorAdd[_from][msg.sender] */\n    tag_37:\n        /* \"NFTcontract.sol\":1002:1086  require(msg.sender == _from || _operatorAdd[_from][msg.sender], \"Require the Owner\") */\n      tag_38\n      jumpi\n      mload(0x40)\n      0x08c379a000000000000000000000000000000000000000000000000000000000\n      dup2\n      mstore\n      0x04\n      add\n      tag_39\n      swap1\n      tag_40\n      jump\t// in\n    tag_39:\n      mload(0x40)\n      dup1\n      swap2\n      sub\n      swap1\n      revert\n    tag_38:\n        /* \"NFTcontract.sol\":1129:1134  false */\n      0x00\n        /* \"NFTcontract.sol\":1097:1109  _operatorAdd */\n      0x01\n        /* \"NFTcontract.sol\":1097:1116  _operatorAdd[_from] */\n      0x00\n        /* \"NFTcontract.sol\":1110:1115  _from */\n      dup6\n        /* \"NFTcontract.sol\":1097:1116  _operatorAdd[_from] */\n      0xffffffffffffffffffffffffffffffffffffffff\n      and\n      0xffffffffffffffffffffffffffffffffffffffff\n      and\n      dup2\n      mstore\n      0x20\n      add\n      swap1\n      dup2\n      mstore\n      0x20\n      add\n      0x00\n      keccak256\n        /* \"NFTcontract.sol\":1097:1128  _operatorAdd[_from][msg.sender] */\n      0x00\n        /* \"NFTcontract.sol\":1117:1127  msg.sender */\n      caller\n        /* \"NFTcontract.sol\":1097:1128  _operatorAdd[_from][msg.sender] */\n      0xffffffffffffffffffffffffffffffffffffffff\n      and\n      0xffffffffffffffffffffffffffffffffffffffff\n      and\n      dup2\n      mstore\n      0x20\n      add\n      swap1\n      dup2\n      mstore\n      0x20\n      add\n      0x00\n      keccak256\n      0x00\n        /* \"NFTcontract.sol\":1097:1134  _operatorAdd[_from][msg.sender]=false */\n      0x0100\n      exp\n      dup2\n      sload\n      dup2\n      0xff\n      mul\n      not\n      and\n      swap1\n      dup4\n      iszero\n      iszero\n      mul\n      or\n      swap1\n      sstore\n      pop\n        /* \"NFTcontract.sol\":1162:1165  _to */\n      dup2\n        /* \"NFTcontract.sol\":1144:1151  _owners */\n      0x00\n        /* \"NFTcontract.sol\":1144:1161  _owners[_tokenId] */\n      dup1\n        /* \"NFTcontract.sol\":1152:1160  _tokenId */\n      dup4\n        /* \"NFTcontract.sol\":1144:1161  _owners[_tokenId] */\n      dup2\n      mstore\n      0x20\n      add\n      swap1\n      dup2\n      mstore\n      0x20\n      add\n      0x00\n      keccak256\n      0x00\n        /* \"NFTcontract.sol\":1144:1165  _owners[_tokenId]=_to */\n      0x0100\n      exp\n      dup2\n      sload\n      dup2\n      0xffffffffffffffffffffffffffffffffffffffff\n      mul\n      not\n      and\n      swap1\n      dup4\n      0xffffffffffffffffffffffffffffffffffffffff\n      and\n      mul\n      or\n      swap1\n      sstore\n      pop\n        /* \"NFTcontract.sol\":780:1172  function transferFrom(address _from, address _to, uint256 _tokenId) public {... */\n      pop\n      pop\n      pop\n      jump\t// out\n        /* \"NFTcontract.sol\":580:755  function ownerOf(uint256 _tokenId) external view returns (address) {... */\n    tag_15:\n        /* \"NFTcontract.sol\":638:645  address */\n      0x00\n        /* \"NFTcontract.sol\":694:695  0 */\n      dup1\n        /* \"NFTcontract.sol\":665:696  _owners[_tokenId] != address(0) */\n      0xffffffffffffffffffffffffffffffffffffffff\n      and\n        /* \"NFTcontract.sol\":665:672  _owners */\n      0x00\n        /* \"NFTcontract.sol\":665:682  _owners[_tokenId] */\n      dup1\n        /* \"NFTcontract.sol\":673:681  _tokenId */\n      dup5\n        /* \"NFTcontract.sol\":665:682  _owners[_tokenId] */\n      dup2\n      mstore\n      0x20\n      add\n      swap1\n      dup2\n      mstore\n      0x20\n      add\n      0x00\n      keccak256\n      0x00\n      swap1\n      sload\n      swap1\n      0x0100\n      exp\n      swap1\n      div\n      0xffffffffffffffffffffffffffffffffffffffff\n      and\n        /* \"NFTcontract.sol\":665:696  _owners[_tokenId] != address(0) */\n      0xffffffffffffffffffffffffffffffffffffffff\n      and\n      sub\n        /* \"NFTcontract.sol\":657:714  require(_owners[_tokenId] != address(0), \"No such token\") */\n      tag_42\n      jumpi\n      mload(0x40)\n      0x08c379a000000000000000000000000000000000000000000000000000000000\n      dup2\n      mstore\n      0x04\n      add\n      tag_43\n      swap1\n      tag_44\n      jump\t// in\n    tag_43:\n      mload(0x40)\n      dup1\n      swap2\n      sub\n      swap1\n      revert\n    tag_42:\n        /* \"NFTcontract.sol\":731:738  _owners */\n      0x00\n        /* \"NFTcontract.sol\":731:748  _owners[_tokenId] */\n      dup1\n        /* \"NFTcontract.sol\":739:747  _tokenId */\n      dup4\n        /* \"NFTcontract.sol\":731:748  _owners[_tokenId] */\n      dup2\n      mstore\n      0x20\n      add\n      swap1\n      dup2\n      mstore\n      0x20\n      add\n      0x00\n      keccak256\n      0x00\n      swap1\n      sload\n      swap1\n      0x0100\n      exp\n      swap1\n      div\n      0xffffffffffffffffffffffffffffffffffffffff\n      and\n        /* \"NFTcontract.sol\":724:748  return _owners[_tokenId] */\n      swap1\n      pop\n        /* \"NFTcontract.sol\":580:755  function ownerOf(uint256 _tokenId) external view returns (address) {... */\n      swap2\n      swap1\n      pop\n      jump\t// out\n        /* \"NFTcontract.sol\":362:574  function mint (uint256 _tokenId) external {... */\n    tag_20:\n        /* \"NFTcontract.sol\":450:451  0 */\n      0x00\n        /* \"NFTcontract.sol\":422:452  _owners[_tokenId]== address(0) */\n      0xffffffffffffffffffffffffffffffffffffffff\n      and\n        /* \"NFTcontract.sol\":422:429  _owners */\n      0x00\n        /* \"NFTcontract.sol\":422:439  _owners[_tokenId] */\n      dup1\n        /* \"NFTcontract.sol\":430:438  _tokenId */\n      dup4\n        /* \"NFTcontract.sol\":422:439  _owners[_tokenId] */\n      dup2\n      mstore\n      0x20\n      add\n      swap1\n      dup2\n      mstore\n      0x20\n      add\n      0x00\n      keccak256\n      0x00\n      swap1\n      sload\n      swap1\n      0x0100\n      exp\n      swap1\n      div\n      0xffffffffffffffffffffffffffffffffffffffff\n      and\n        /* \"NFTcontract.sol\":422:452  _owners[_tokenId]== address(0) */\n      0xffffffffffffffffffffffffffffffffffffffff\n      and\n      eq\n        /* \"NFTcontract.sol\":414:471  require(_owners[_tokenId]== address(0), \"Already Minted\") */\n      tag_46\n      jumpi\n      mload(0x40)\n      0x08c379a000000000000000000000000000000000000000000000000000000000\n      dup2\n      mstore\n      0x04\n      add\n      tag_47\n      swap1\n      tag_48\n      jump\t// in\n    tag_47:\n      mload(0x40)\n      dup1\n      swap2\n      sub\n      swap1\n      revert\n    tag_46:\n        /* \"NFTcontract.sol\":498:501  100 */\n      0x64\n        /* \"NFTcontract.sol\":489:497  _tokenId */\n      dup2\n        /* \"NFTcontract.sol\":489:501  _tokenId<100 */\n      lt\n        /* \"NFTcontract.sol\":481:527  require(_tokenId<100, \"Token Id is too Large\") */\n      tag_49\n      jumpi\n      mload(0x40)\n      0x08c379a000000000000000000000000000000000000000000000000000000000\n      dup2\n      mstore\n      0x04\n      add\n      tag_50\n      swap1\n      tag_51\n      jump\t// in\n    tag_50:\n      mload(0x40)\n      dup1\n      swap2\n      sub\n      swap1\n      revert\n    tag_49:\n        /* \"NFTcontract.sol\":557:567  msg.sender */\n      caller\n        /* \"NFTcontract.sol\":537:544  _owners */\n      0x00\n        /* \"NFTcontract.sol\":537:554  _owners[_tokenId] */\n      dup1\n        /* \"NFTcontract.sol\":545:553  _tokenId */\n      dup4\n        /* \"NFTcontract.sol\":537:554  _owners[_tokenId] */\n      dup2\n      mstore\n      0x20\n      add\n      swap1\n      dup2\n      mstore\n      0x20\n      add\n      0x00\n      keccak256\n      0x00\n        /* \"NFTcontract.sol\":537:567  _owners[_tokenId] = msg.sender */\n      0x0100\n      exp\n      dup2\n      sload\n      dup2\n      0xffffffffffffffffffffffffffffffffffffffff\n      mul\n      not\n      and\n      swap1\n      dup4\n      0xffffffffffffffffffffffffffffffffffffffff\n      and\n      mul\n      or\n      swap1\n      sstore\n      pop\n        /* \"NFTcontract.sol\":362:574  function mint (uint256 _tokenId) external {... */\n      pop\n      jump\t// out\n        /* \"NFTcontract.sol\":1429:1564  function setApprovalForAll(address _operator, bool _approved) external {... */\n    tag_24:\n        /* \"NFTcontract.sol\":1547:1556  _approved */\n      dup1\n        /* \"NFTcontract.sol\":1510:1522  _operatorAdd */\n      0x01\n        /* \"NFTcontract.sol\":1510:1534  _operatorAdd[msg.sender] */\n      0x00\n        /* \"NFTcontract.sol\":1523:1533  msg.sender */\n      caller\n        /* \"NFTcontract.sol\":1510:1534  _operatorAdd[msg.sender] */\n      0xffffffffffffffffffffffffffffffffffffffff\n      and\n      0xffffffffffffffffffffffffffffffffffffffff\n      and\n      dup2\n      mstore\n      0x20\n      add\n      swap1\n      dup2\n      mstore\n      0x20\n      add\n      0x00\n      keccak256\n        /* \"NFTcontract.sol\":1510:1545  _operatorAdd[msg.sender][_operator] */\n      0x00\n        /* \"NFTcontract.sol\":1535:1544  _operator */\n      dup5\n        /* \"NFTcontract.sol\":1510:1545  _operatorAdd[msg.sender][_operator] */\n      0xffffffffffffffffffffffffffffffffffffffff\n      and\n      0xffffffffffffffffffffffffffffffffffffffff\n      and\n      dup2\n      mstore\n      0x20\n      add\n      swap1\n      dup2\n      mstore\n      0x20\n      add\n      0x00\n      keccak256\n      0x00\n        /* \"NFTcontract.sol\":1510:1556  _operatorAdd[msg.sender][_operator]= _approved */\n      0x0100\n      exp\n      dup2\n      sload\n      dup2\n      0xff\n      mul\n      not\n      and\n      swap1\n      dup4\n      iszero\n      iszero\n      mul\n      or\n      swap1\n      sstore\n      pop\n        /* \"NFTcontract.sol\":1429:1564  function setApprovalForAll(address _operator, bool _approved) external {... */\n      pop\n      pop\n      jump\t// out\n        /* \"NFTcontract.sol\":1178:1412  function tokenURI(uint256 _tokenId) external view returns (string memory){... */\n    tag_27:\n        /* \"NFTcontract.sol\":1237:1250  string memory */\n      0x60\n        /* \"NFTcontract.sol\":1298:1299  0 */\n      0x00\n        /* \"NFTcontract.sol\":1269:1300  _owners[_tokenId] != address(0) */\n      0xffffffffffffffffffffffffffffffffffffffff\n      and\n        /* \"NFTcontract.sol\":1269:1276  _owners */\n      0x00\n        /* \"NFTcontract.sol\":1269:1286  _owners[_tokenId] */\n      dup1\n        /* \"NFTcontract.sol\":1277:1285  _tokenId */\n      dup5\n        /* \"NFTcontract.sol\":1269:1286  _owners[_tokenId] */\n      dup2\n      mstore\n      0x20\n      add\n      swap1\n      dup2\n      mstore\n      0x20\n      add\n      0x00\n      keccak256\n      0x00\n      swap1\n      sload\n      swap1\n      0x0100\n      exp\n      swap1\n      div\n      0xffffffffffffffffffffffffffffffffffffffff\n      and\n        /* \"NFTcontract.sol\":1269:1300  _owners[_tokenId] != address(0) */\n      0xffffffffffffffffffffffffffffffffffffffff\n      and\n      sub\n        /* \"NFTcontract.sol\":1261:1319  require(_owners[_tokenId] != address(0), \"Does not exist\") */\n      tag_54\n      jumpi\n      mload(0x40)\n      0x08c379a000000000000000000000000000000000000000000000000000000000\n      dup2\n      mstore\n      0x04\n      add\n      tag_55\n      swap1\n      tag_56\n      jump\t// in\n    tag_55:\n      mload(0x40)\n      dup1\n      swap2\n      sub\n      swap1\n      revert\n    tag_54:\n        /* \"NFTcontract.sol\":1366:1373  baseURL */\n      0x02\n        /* \"NFTcontract.sol\":1375:1394  _tokenId.toString() */\n      tag_57\n        /* \"NFTcontract.sol\":1375:1383  _tokenId */\n      dup4\n        /* \"NFTcontract.sol\":1375:1392  _tokenId.toString */\n      tag_58\n        /* \"NFTcontract.sol\":1375:1394  _tokenId.toString() */\n      jump\t// in\n    tag_57:\n        /* \"NFTcontract.sol\":1349:1404  abi.encodePacked(baseURL, _tokenId.toString(), \".jpeg\") */\n      add(0x20, mload(0x40))\n      tag_59\n      swap3\n      swap2\n      swap1\n      tag_60\n      jump\t// in\n    tag_59:\n      mload(0x40)\n      0x20\n      dup2\n      dup4\n      sub\n      sub\n      dup2\n      mstore\n      swap1\n      0x40\n      mstore\n        /* \"NFTcontract.sol\":1335:1405  return string(abi.encodePacked(baseURL, _tokenId.toString(), \".jpeg\")) */\n      swap1\n      pop\n        /* \"NFTcontract.sol\":1178:1412  function tokenURI(uint256 _tokenId) external view returns (string memory){... */\n      swap2\n      swap1\n      pop\n      jump\t// out\n        /* \"@openzeppelin/contracts/utils/Strings.sol\":987:1619  function toString(uint256 value) internal pure returns (string memory) {... */\n    tag_58:\n        /* \"@openzeppelin/contracts/utils/Strings.sol\":1043:1056  string memory */\n      0x60\n        /* \"@openzeppelin/contracts/utils/Strings.sol\":1092:1106  uint256 length */\n      0x00\n        /* \"@openzeppelin/contracts/utils/Strings.sol\":1129:1130  1 */\n      0x01\n        /* \"@openzeppelin/contracts/utils/Strings.sol\":1109:1126  Math.log10(value) */\n      tag_62\n        /* \"@openzeppelin/contracts/utils/Strings.sol\":1120:1125  value */\n      dup5\n        /* \"@openzeppelin/contracts/utils/Strings.sol\":1109:1119  Math.log10 */\n      tag_63\n        /* \"@openzeppelin/contracts/utils/Strings.sol\":1109:1126  Math.log10(value) */\n      jump\t// in\n    tag_62:\n        /* \"@openzeppelin/contracts/utils/Strings.sol\":1109:1130  Math.log10(value) + 1 */\n      add\n        /* \"@openzeppelin/contracts/utils/Strings.sol\":1092:1130  uint256 length = Math.log10(value) + 1 */\n      swap1\n      pop\n        /* \"@openzeppelin/contracts/utils/Strings.sol\":1144:1164  string memory buffer */\n      0x00\n        /* \"@openzeppelin/contracts/utils/Strings.sol\":1178:1184  length */\n      dup2\n        /* \"@openzeppelin/contracts/utils/Strings.sol\":1167:1185  new string(length) */\n      0xffffffffffffffff\n      dup2\n      gt\n      iszero\n      tag_64\n      jumpi\n      tag_65\n      tag_66\n      jump\t// in\n    tag_65:\n    tag_64:\n      mload(0x40)\n      swap1\n      dup1\n      dup3\n      mstore\n      dup1\n      0x1f\n      add\n      not(0x1f)\n      and\n      0x20\n      add\n      dup3\n      add\n      0x40\n      mstore\n      dup1\n      iszero\n      tag_67\n      jumpi\n      dup2\n      0x20\n      add\n      0x01\n      dup3\n      mul\n      dup1\n      calldatasize\n      dup4\n      calldatacopy\n      dup1\n      dup3\n      add\n      swap2\n      pop\n      pop\n      swap1\n      pop\n    tag_67:\n      pop\n        /* \"@openzeppelin/contracts/utils/Strings.sol\":1144:1185  string memory buffer = new string(length) */\n      swap1\n      pop\n        /* \"@openzeppelin/contracts/utils/Strings.sol\":1199:1210  uint256 ptr */\n      0x00\n        /* \"@openzeppelin/contracts/utils/Strings.sol\":1294:1300  length */\n      dup3\n        /* \"@openzeppelin/contracts/utils/Strings.sol\":1290:1292  32 */\n      0x20\n        /* \"@openzeppelin/contracts/utils/Strings.sol\":1286:1301  add(32, length) */\n      add\n        /* \"@openzeppelin/contracts/utils/Strings.sol\":1278:1284  buffer */\n      dup3\n        /* \"@openzeppelin/contracts/utils/Strings.sol\":1274:1302  add(buffer, add(32, length)) */\n      add\n        /* \"@openzeppelin/contracts/utils/Strings.sol\":1267:1302  ptr := add(buffer, add(32, length)) */\n      swap1\n      pop\n        /* \"@openzeppelin/contracts/utils/Strings.sol\":1329:1576  while (true) {... */\n    tag_68:\n        /* \"@openzeppelin/contracts/utils/Strings.sol\":1336:1340  true */\n      0x01\n        /* \"@openzeppelin/contracts/utils/Strings.sol\":1329:1576  while (true) {... */\n      iszero\n      tag_69\n      jumpi\n        /* \"@openzeppelin/contracts/utils/Strings.sol\":1360:1365  ptr-- */\n      dup1\n      dup1\n      0x01\n      swap1\n      sub\n      swap2\n      pop\n      pop\n        /* \"@openzeppelin/contracts/utils/Strings.sol\":1464:1474  HEX_DIGITS */\n      0x3031323334353637383961626364656600000000000000000000000000000000\n        /* \"@openzeppelin/contracts/utils/Strings.sol\":1459:1461  10 */\n      0x0a\n        /* \"@openzeppelin/contracts/utils/Strings.sol\":1452:1457  value */\n      dup7\n        /* \"@openzeppelin/contracts/utils/Strings.sol\":1448:1462  mod(value, 10) */\n      mod\n        /* \"@openzeppelin/contracts/utils/Strings.sol\":1443:1475  byte(mod(value, 10), HEX_DIGITS) */\n      byte\n        /* \"@openzeppelin/contracts/utils/Strings.sol\":1438:1441  ptr */\n      dup2\n        /* \"@openzeppelin/contracts/utils/Strings.sol\":1430:1476  mstore8(ptr, byte(mod(value, 10), HEX_DIGITS)) */\n      mstore8\n        /* \"@openzeppelin/contracts/utils/Strings.sol\":1520:1522  10 */\n      0x0a\n        /* \"@openzeppelin/contracts/utils/Strings.sol\":1511:1522  value /= 10 */\n      dup6\n      dup2\n      tag_70\n      jumpi\n      tag_71\n      tag_72\n      jump\t// in\n    tag_71:\n    tag_70:\n      div\n      swap5\n      pop\n        /* \"@openzeppelin/contracts/utils/Strings.sol\":1553:1554  0 */\n      0x00\n        /* \"@openzeppelin/contracts/utils/Strings.sol\":1544:1549  value */\n      dup6\n        /* \"@openzeppelin/contracts/utils/Strings.sol\":1544:1554  value == 0 */\n      sub\n        /* \"@openzeppelin/contracts/utils/Strings.sol\":1329:1576  while (true) {... */\n      tag_68\n        /* \"@openzeppelin/contracts/utils/Strings.sol\":1540:1561  if (value == 0) break */\n      jumpi\n        /* \"@openzeppelin/contracts/utils/Strings.sol\":1329:1576  while (true) {... */\n    tag_69:\n        /* \"@openzeppelin/contracts/utils/Strings.sol\":1596:1602  buffer */\n      dup2\n        /* \"@openzeppelin/contracts/utils/Strings.sol\":1589:1602  return buffer */\n      swap4\n      pop\n      pop\n      pop\n      pop\n        /* \"@openzeppelin/contracts/utils/Strings.sol\":987:1619  function toString(uint256 value) internal pure returns (string memory) {... */\n      swap2\n      swap1\n      pop\n      jump\t// out\n        /* \"@openzeppelin/contracts/utils/math/Math.sol\":25316:26232  function log10(uint256 value) internal pure returns (uint256) {... */\n    tag_63:\n        /* \"@openzeppelin/contracts/utils/math/Math.sol\":25369:25376  uint256 */\n      0x00\n        /* \"@openzeppelin/contracts/utils/math/Math.sol\":25388:25402  uint256 result */\n      dup1\n        /* \"@openzeppelin/contracts/utils/math/Math.sol\":25405:25406  0 */\n      0x00\n        /* \"@openzeppelin/contracts/utils/math/Math.sol\":25388:25406  uint256 result = 0 */\n      swap1\n      pop\n        /* \"@openzeppelin/contracts/utils/math/Math.sol\":25453:25461  10 ** 64 */\n      0x184f03e93ff9f4daa797ed6e38ed64bf6a1f010000000000000000\n        /* \"@openzeppelin/contracts/utils/math/Math.sol\":25444:25449  value */\n      dup4\n        /* \"@openzeppelin/contracts/utils/math/Math.sol\":25444:25461  value >= 10 ** 64 */\n      lt\n        /* \"@openzeppelin/contracts/utils/math/Math.sol\":25440:25543  if (value >= 10 ** 64) {... */\n      tag_75\n      jumpi\n        /* \"@openzeppelin/contracts/utils/math/Math.sol\":25490:25498  10 ** 64 */\n      0x184f03e93ff9f4daa797ed6e38ed64bf6a1f010000000000000000\n        /* \"@openzeppelin/contracts/utils/math/Math.sol\":25481:25498  value /= 10 ** 64 */\n      dup4\n      dup2\n      tag_76\n      jumpi\n      tag_77\n      tag_72\n      jump\t// in\n    tag_77:\n    tag_76:\n      div\n      swap3\n      pop\n        /* \"@openzeppelin/contracts/utils/math/Math.sol\":25526:25528  64 */\n      0x40\n        /* \"@openzeppelin/contracts/utils/math/Math.sol\":25516:25528  result += 64 */\n      dup2\n      add\n      swap1\n      pop\n        /* \"@openzeppelin/contracts/utils/math/Math.sol\":25440:25543  if (value >= 10 ** 64) {... */\n    tag_75:\n        /* \"@openzeppelin/contracts/utils/math/Math.sol\":25569:25577  10 ** 32 */\n      0x04ee2d6d415b85acef8100000000\n        /* \"@openzeppelin/contracts/utils/math/Math.sol\":25560:25565  value */\n      dup4\n        /* \"@openzeppelin/contracts/utils/math/Math.sol\":25560:25577  value >= 10 ** 32 */\n      lt\n        /* \"@openzeppelin/contracts/utils/math/Math.sol\":25556:25659  if (value >= 10 ** 32) {... */\n      tag_78\n      jumpi\n        /* \"@openzeppelin/contracts/utils/math/Math.sol\":25606:25614  10 ** 32 */\n      0x04ee2d6d415b85acef8100000000\n        /* \"@openzeppelin/contracts/utils/math/Math.sol\":25597:25614  value /= 10 ** 32 */\n      dup4\n      dup2\n      tag_79\n      jumpi\n      tag_80\n      tag_72\n      jump\t// in\n    tag_80:\n    tag_79:\n      div\n      swap3\n      pop\n        /* \"@openzeppelin/contracts/utils/math/Math.sol\":25642:25644  32 */\n      0x20\n        /* \"@openzeppelin/contracts/utils/math/Math.sol\":25632:25644  result += 32 */\n      dup2\n      add\n      swap1\n      pop\n        /* \"@openzeppelin/contracts/utils/math/Math.sol\":25556:25659  if (value >= 10 ** 32) {... */\n    tag_78:\n        /* \"@openzeppelin/contracts/utils/math/Math.sol\":25685:25693  10 ** 16 */\n      0x2386f26fc10000\n        /* \"@openzeppelin/contracts/utils/math/Math.sol\":25676:25681  value */\n      dup4\n        /* \"@openzeppelin/contracts/utils/math/Math.sol\":25676:25693  value >= 10 ** 16 */\n      lt\n        /* \"@openzeppelin/contracts/utils/math/Math.sol\":25672:25775  if (value >= 10 ** 16) {... */\n      tag_81\n      jumpi\n        /* \"@openzeppelin/contracts/utils/math/Math.sol\":25722:25730  10 ** 16 */\n      0x2386f26fc10000\n        /* \"@openzeppelin/contracts/utils/math/Math.sol\":25713:25730  value /= 10 ** 16 */\n      dup4\n      dup2\n      tag_82\n      jumpi\n      tag_83\n      tag_72\n      jump\t// in\n    tag_83:\n    tag_82:\n      div\n      swap3\n      pop\n        /* \"@openzeppelin/contracts/utils/math/Math.sol\":25758:25760  16 */\n      0x10\n        /* \"@openzeppelin/contracts/utils/math/Math.sol\":25748:25760  result += 16 */\n      dup2\n      add\n      swap1\n      pop\n        /* \"@openzeppelin/contracts/utils/math/Math.sol\":25672:25775  if (value >= 10 ** 16) {... */\n    tag_81:\n        /* \"@openzeppelin/contracts/utils/math/Math.sol\":25801:25808  10 ** 8 */\n      0x05f5e100\n        /* \"@openzeppelin/contracts/utils/math/Math.sol\":25792:25797  value */\n      dup4\n        /* \"@openzeppelin/contracts/utils/math/Math.sol\":25792:25808  value >= 10 ** 8 */\n      lt\n        /* \"@openzeppelin/contracts/utils/math/Math.sol\":25788:25888  if (value >= 10 ** 8) {... */\n      tag_84\n      jumpi\n        /* \"@openzeppelin/contracts/utils/math/Math.sol\":25837:25844  10 ** 8 */\n      0x05f5e100\n        /* \"@openzeppelin/contracts/utils/math/Math.sol\":25828:25844  value /= 10 ** 8 */\n      dup4\n      dup2\n      tag_85\n      jumpi\n      tag_86\n      tag_72\n      jump\t// in\n    tag_86:\n    tag_85:\n      div\n      swap3\n      pop\n        /* \"@openzeppelin/contracts/utils/math/Math.sol\":25872:25873  8 */\n      0x08\n        /* \"@openzeppelin/contracts/utils/math/Math.sol\":25862:25873  result += 8 */\n      dup2\n      add\n      swap1\n      pop\n        /* \"@openzeppelin/contracts/utils/math/Math.sol\":25788:25888  if (value >= 10 ** 8) {... */\n    tag_84:\n        /* \"@openzeppelin/contracts/utils/math/Math.sol\":25914:25921  10 ** 4 */\n      0x2710\n        /* \"@openzeppelin/contracts/utils/math/Math.sol\":25905:25910  value */\n      dup4\n        /* \"@openzeppelin/contracts/utils/math/Math.sol\":25905:25921  value >= 10 ** 4 */\n      lt\n        /* \"@openzeppelin/contracts/utils/math/Math.sol\":25901:26001  if (value >= 10 ** 4) {... */\n      tag_87\n      jumpi\n        /* \"@openzeppelin/contracts/utils/math/Math.sol\":25950:25957  10 ** 4 */\n      0x2710\n        /* \"@openzeppelin/contracts/utils/math/Math.sol\":25941:25957  value /= 10 ** 4 */\n      dup4\n      dup2\n      tag_88\n      jumpi\n      tag_89\n      tag_72\n      jump\t// in\n    tag_89:\n    tag_88:\n      div\n      swap3\n      pop\n        /* \"@openzeppelin/contracts/utils/math/Math.sol\":25985:25986  4 */\n      0x04\n        /* \"@openzeppelin/contracts/utils/math/Math.sol\":25975:25986  result += 4 */\n      dup2\n      add\n      swap1\n      pop\n        /* \"@openzeppelin/contracts/utils/math/Math.sol\":25901:26001  if (value >= 10 ** 4) {... */\n    tag_87:\n        /* \"@openzeppelin/contracts/utils/math/Math.sol\":26027:26034  10 ** 2 */\n      0x64\n        /* \"@openzeppelin/contracts/utils/math/Math.sol\":26018:26023  value */\n      dup4\n        /* \"@openzeppelin/contracts/utils/math/Math.sol\":26018:26034  value >= 10 ** 2 */\n      lt\n        /* \"@openzeppelin/contracts/utils/math/Math.sol\":26014:26114  if (value >= 10 ** 2) {... */\n      tag_90\n      jumpi\n        /* \"@openzeppelin/contracts/utils/math/Math.sol\":26063:26070  10 ** 2 */\n      0x64\n        /* \"@openzeppelin/contracts/utils/math/Math.sol\":26054:26070  value /= 10 ** 2 */\n      dup4\n      dup2\n      tag_91\n      jumpi\n      tag_92\n      tag_72\n      jump\t// in\n    tag_92:\n    tag_91:\n      div\n      swap3\n      pop\n        /* \"@openzeppelin/contracts/utils/math/Math.sol\":26098:26099  2 */\n      0x02\n        /* \"@openzeppelin/contracts/utils/math/Math.sol\":26088:26099  result += 2 */\n      dup2\n      add\n      swap1\n      pop\n        /* \"@openzeppelin/contracts/utils/math/Math.sol\":26014:26114  if (value >= 10 ** 2) {... */\n    tag_90:\n        /* \"@openzeppelin/contracts/utils/math/Math.sol\":26140:26147  10 ** 1 */\n      0x0a\n        /* \"@openzeppelin/contracts/utils/math/Math.sol\":26131:26136  value */\n      dup4\n        /* \"@openzeppelin/contracts/utils/math/Math.sol\":26131:26147  value >= 10 ** 1 */\n      lt\n        /* \"@openzeppelin/contracts/utils/math/Math.sol\":26127:26193  if (value >= 10 ** 1) {... */\n      tag_93\n      jumpi\n        /* \"@openzeppelin/contracts/utils/math/Math.sol\":26177:26178  1 */\n      0x01\n        /* \"@openzeppelin/contracts/utils/math/Math.sol\":26167:26178  result += 1 */\n      dup2\n      add\n      swap1\n      pop\n        /* \"@openzeppelin/contracts/utils/math/Math.sol\":26127:26193  if (value >= 10 ** 1) {... */\n    tag_93:\n        /* \"@openzeppelin/contracts/utils/math/Math.sol\":26219:26225  result */\n      dup1\n        /* \"@openzeppelin/contracts/utils/math/Math.sol\":26212:26225  return result */\n      swap2\n      pop\n      pop\n        /* \"@openzeppelin/contracts/utils/math/Math.sol\":25316:26232  function log10(uint256 value) internal pure returns (uint256) {... */\n      swap2\n      swap1\n      pop\n      jump\t// out\n        /* \"#utility.yul\":88:205   */\n    tag_95:\n        /* \"#utility.yul\":197:198   */\n      0x00\n        /* \"#utility.yul\":194:195   */\n      dup1\n        /* \"#utility.yul\":187:199   */\n      revert\n        /* \"#utility.yul\":334:460   */\n    tag_97:\n        /* \"#utility.yul\":371:378   */\n      0x00\n        /* \"#utility.yul\":411:453   */\n      0xffffffffffffffffffffffffffffffffffffffff\n        /* \"#utility.yul\":404:409   */\n      dup3\n        /* \"#utility.yul\":400:454   */\n      and\n        /* \"#utility.yul\":389:454   */\n      swap1\n      pop\n        /* \"#utility.yul\":334:460   */\n      swap2\n      swap1\n      pop\n      jump\t// out\n        /* \"#utility.yul\":466:562   */\n    tag_98:\n        /* \"#utility.yul\":503:510   */\n      0x00\n        /* \"#utility.yul\":532:556   */\n      tag_141\n        /* \"#utility.yul\":550:555   */\n      dup3\n        /* \"#utility.yul\":532:556   */\n      tag_97\n      jump\t// in\n    tag_141:\n        /* \"#utility.yul\":521:556   */\n      swap1\n      pop\n        /* \"#utility.yul\":466:562   */\n      swap2\n      swap1\n      pop\n      jump\t// out\n        /* \"#utility.yul\":568:690   */\n    tag_99:\n        /* \"#utility.yul\":641:665   */\n      tag_143\n        /* \"#utility.yul\":659:664   */\n      dup2\n        /* \"#utility.yul\":641:665   */\n      tag_98\n      jump\t// in\n    tag_143:\n        /* \"#utility.yul\":634:639   */\n      dup2\n        /* \"#utility.yul\":631:666   */\n      eq\n        /* \"#utility.yul\":621:684   */\n      tag_144\n      jumpi\n        /* \"#utility.yul\":680:681   */\n      0x00\n        /* \"#utility.yul\":677:678   */\n      dup1\n        /* \"#utility.yul\":670:682   */\n      revert\n        /* \"#utility.yul\":621:684   */\n    tag_144:\n        /* \"#utility.yul\":568:690   */\n      pop\n      jump\t// out\n        /* \"#utility.yul\":696:835   */\n    tag_100:\n        /* \"#utility.yul\":742:747   */\n      0x00\n        /* \"#utility.yul\":780:786   */\n      dup2\n        /* \"#utility.yul\":767:787   */\n      calldataload\n        /* \"#utility.yul\":758:787   */\n      swap1\n      pop\n        /* \"#utility.yul\":796:829   */\n      tag_146\n        /* \"#utility.yul\":823:828   */\n      dup2\n        /* \"#utility.yul\":796:829   */\n      tag_99\n      jump\t// in\n    tag_146:\n        /* \"#utility.yul\":696:835   */\n      swap3\n      swap2\n      pop\n      pop\n      jump\t// out\n        /* \"#utility.yul\":841:918   */\n    tag_101:\n        /* \"#utility.yul\":878:885   */\n      0x00\n        /* \"#utility.yul\":907:912   */\n      dup2\n        /* \"#utility.yul\":896:912   */\n      swap1\n      pop\n        /* \"#utility.yul\":841:918   */\n      swap2\n      swap1\n      pop\n      jump\t// out\n        /* \"#utility.yul\":924:1046   */\n    tag_102:\n        /* \"#utility.yul\":997:1021   */\n      tag_149\n        /* \"#utility.yul\":1015:1020   */\n      dup2\n        /* \"#utility.yul\":997:1021   */\n      tag_101\n      jump\t// in\n    tag_149:\n        /* \"#utility.yul\":990:995   */\n      dup2\n        /* \"#utility.yul\":987:1022   */\n      eq\n        /* \"#utility.yul\":977:1040   */\n      tag_150\n      jumpi\n        /* \"#utility.yul\":1036:1037   */\n      0x00\n        /* \"#utility.yul\":1033:1034   */\n      dup1\n        /* \"#utility.yul\":1026:1038   */\n      revert\n        /* \"#utility.yul\":977:1040   */\n    tag_150:\n        /* \"#utility.yul\":924:1046   */\n      pop\n      jump\t// out\n        /* \"#utility.yul\":1052:1191   */\n    tag_103:\n        /* \"#utility.yul\":1098:1103   */\n      0x00\n        /* \"#utility.yul\":1136:1142   */\n      dup2\n        /* \"#utility.yul\":1123:1143   */\n      calldataload\n        /* \"#utility.yul\":1114:1143   */\n      swap1\n      pop\n        /* \"#utility.yul\":1152:1185   */\n      tag_152\n        /* \"#utility.yul\":1179:1184   */\n      dup2\n        /* \"#utility.yul\":1152:1185   */\n      tag_102\n      jump\t// in\n    tag_152:\n        /* \"#utility.yul\":1052:1191   */\n      swap3\n      swap2\n      pop\n      pop\n      jump\t// out\n        /* \"#utility.yul\":1197:1816   */\n    tag_10:\n        /* \"#utility.yul\":1274:1280   */\n      0x00\n        /* \"#utility.yul\":1282:1288   */\n      dup1\n        /* \"#utility.yul\":1290:1296   */\n      0x00\n        /* \"#utility.yul\":1339:1341   */\n      0x60\n        /* \"#utility.yul\":1327:1336   */\n      dup5\n        /* \"#utility.yul\":1318:1325   */\n      dup7\n        /* \"#utility.yul\":1314:1337   */\n      sub\n        /* \"#utility.yul\":1310:1342   */\n      slt\n        /* \"#utility.yul\":1307:1426   */\n      iszero\n      tag_154\n      jumpi\n        /* \"#utility.yul\":1345:1424   */\n      tag_155\n      tag_95\n      jump\t// in\n    tag_155:\n        /* \"#utility.yul\":1307:1426   */\n    tag_154:\n        /* \"#utility.yul\":1465:1466   */\n      0x00\n        /* \"#utility.yul\":1490:1543   */\n      tag_156\n        /* \"#utility.yul\":1535:1542   */\n      dup7\n        /* \"#utility.yul\":1526:1532   */\n      dup3\n        /* \"#utility.yul\":1515:1524   */\n      dup8\n        /* \"#utility.yul\":1511:1533   */\n      add\n        /* \"#utility.yul\":1490:1543   */\n      tag_100\n      jump\t// in\n    tag_156:\n        /* \"#utility.yul\":1480:1543   */\n      swap4\n      pop\n        /* \"#utility.yul\":1436:1553   */\n      pop\n        /* \"#utility.yul\":1592:1594   */\n      0x20\n        /* \"#utility.yul\":1618:1671   */\n      tag_157\n        /* \"#utility.yul\":1663:1670   */\n      dup7\n        /* \"#utility.yul\":1654:1660   */\n      dup3\n        /* \"#utility.yul\":1643:1652   */\n      dup8\n        /* \"#utility.yul\":1639:1661   */\n      add\n        /* \"#utility.yul\":1618:1671   */\n      tag_100\n      jump\t// in\n    tag_157:\n        /* \"#utility.yul\":1608:1671   */\n      swap3\n      pop\n        /* \"#utility.yul\":1563:1681   */\n      pop\n        /* \"#utility.yul\":1720:1722   */\n      0x40\n        /* \"#utility.yul\":1746:1799   */\n      tag_158\n        /* \"#utility.yul\":1791:1798   */\n      dup7\n        /* \"#utility.yul\":1782:1788   */\n      dup3\n        /* \"#utility.yul\":1771:1780   */\n      dup8\n        /* \"#utility.yul\":1767:1789   */\n      add\n        /* \"#utility.yul\":1746:1799   */\n      tag_103\n      jump\t// in\n    tag_158:\n        /* \"#utility.yul\":1736:1799   */\n      swap2\n      pop\n        /* \"#utility.yul\":1691:1809   */\n      pop\n        /* \"#utility.yul\":1197:1816   */\n      swap3\n      pop\n      swap3\n      pop\n      swap3\n      jump\t// out\n        /* \"#utility.yul\":1822:2151   */\n    tag_14:\n        /* \"#utility.yul\":1881:1887   */\n      0x00\n        /* \"#utility.yul\":1930:1932   */\n      0x20\n        /* \"#utility.yul\":1918:1927   */\n      dup3\n        /* \"#utility.yul\":1909:1916   */\n      dup5\n        /* \"#utility.yul\":1905:1928   */\n      sub\n        /* \"#utility.yul\":1901:1933   */\n      slt\n        /* \"#utility.yul\":1898:2017   */\n      iszero\n      tag_160\n      jumpi\n        /* \"#utility.yul\":1936:2015   */\n      tag_161\n      tag_95\n      jump\t// in\n    tag_161:\n        /* \"#utility.yul\":1898:2017   */\n    tag_160:\n        /* \"#utility.yul\":2056:2057   */\n      0x00\n        /* \"#utility.yul\":2081:2134   */\n      tag_162\n        /* \"#utility.yul\":2126:2133   */\n      dup5\n        /* \"#utility.yul\":2117:2123   */\n      dup3\n        /* \"#utility.yul\":2106:2115   */\n      dup6\n        /* \"#utility.yul\":2102:2124   */\n      add\n        /* \"#utility.yul\":2081:2134   */\n      tag_103\n      jump\t// in\n    tag_162:\n        /* \"#utility.yul\":2071:2134   */\n      swap2\n      pop\n        /* \"#utility.yul\":2027:2144   */\n      pop\n        /* \"#utility.yul\":1822:2151   */\n      swap3\n      swap2\n      pop\n      pop\n      jump\t// out\n        /* \"#utility.yul\":2157:2275   */\n    tag_104:\n        /* \"#utility.yul\":2244:2268   */\n      tag_164\n        /* \"#utility.yul\":2262:2267   */\n      dup2\n        /* \"#utility.yul\":2244:2268   */\n      tag_98\n      jump\t// in\n    tag_164:\n        /* \"#utility.yul\":2239:2242   */\n      dup3\n        /* \"#utility.yul\":2232:2269   */\n      mstore\n        /* \"#utility.yul\":2157:2275   */\n      pop\n      pop\n      jump\t// out\n        /* \"#utility.yul\":2281:2503   */\n    tag_17:\n        /* \"#utility.yul\":2374:2378   */\n      0x00\n        /* \"#utility.yul\":2412:2414   */\n      0x20\n        /* \"#utility.yul\":2401:2410   */\n      dup3\n        /* \"#utility.yul\":2397:2415   */\n      add\n        /* \"#utility.yul\":2389:2415   */\n      swap1\n      pop\n        /* \"#utility.yul\":2425:2496   */\n      tag_166\n        /* \"#utility.yul\":2493:2494   */\n      0x00\n        /* \"#utility.yul\":2482:2491   */\n      dup4\n        /* \"#utility.yul\":2478:2495   */\n      add\n        /* \"#utility.yul\":2469:2475   */\n      dup5\n        /* \"#utility.yul\":2425:2496   */\n      tag_104\n      jump\t// in\n    tag_166:\n        /* \"#utility.yul\":2281:2503   */\n      swap3\n      swap2\n      pop\n      pop\n      jump\t// out\n        /* \"#utility.yul\":2509:2599   */\n    tag_105:\n        /* \"#utility.yul\":2543:2550   */\n      0x00\n        /* \"#utility.yul\":2586:2591   */\n      dup2\n        /* \"#utility.yul\":2579:2592   */\n      iszero\n        /* \"#utility.yul\":2572:2593   */\n      iszero\n        /* \"#utility.yul\":2561:2593   */\n      swap1\n      pop\n        /* \"#utility.yul\":2509:2599   */\n      swap2\n      swap1\n      pop\n      jump\t// out\n        /* \"#utility.yul\":2605:2721   */\n    tag_106:\n        /* \"#utility.yul\":2675:2696   */\n      tag_169\n        /* \"#utility.yul\":2690:2695   */\n      dup2\n        /* \"#utility.yul\":2675:2696   */\n      tag_105\n      jump\t// in\n    tag_169:\n        /* \"#utility.yul\":2668:2673   */\n      dup2\n        /* \"#utility.yul\":2665:2697   */\n      eq\n        /* \"#utility.yul\":2655:2715   */\n      tag_170\n      jumpi\n        /* \"#utility.yul\":2711:2712   */\n      0x00\n        /* \"#utility.yul\":2708:2709   */\n      dup1\n        /* \"#utility.yul\":2701:2713   */\n      revert\n        /* \"#utility.yul\":2655:2715   */\n    tag_170:\n        /* \"#utility.yul\":2605:2721   */\n      pop\n      jump\t// out\n        /* \"#utility.yul\":2727:2860   */\n    tag_107:\n        /* \"#utility.yul\":2770:2775   */\n      0x00\n        /* \"#utility.yul\":2808:2814   */\n      dup2\n        /* \"#utility.yul\":2795:2815   */\n      calldataload\n        /* \"#utility.yul\":2786:2815   */\n      swap1\n      pop\n        /* \"#utility.yul\":2824:2854   */\n      tag_172\n        /* \"#utility.yul\":2848:2853   */\n      dup2\n        /* \"#utility.yul\":2824:2854   */\n      tag_106\n      jump\t// in\n    tag_172:\n        /* \"#utility.yul\":2727:2860   */\n      swap3\n      swap2\n      pop\n      pop\n      jump\t// out\n        /* \"#utility.yul\":2866:3334   */\n    tag_23:\n        /* \"#utility.yul\":2931:2937   */\n      0x00\n        /* \"#utility.yul\":2939:2945   */\n      dup1\n        /* \"#utility.yul\":2988:2990   */\n      0x40\n        /* \"#utility.yul\":2976:2985   */\n      dup4\n        /* \"#utility.yul\":2967:2974   */\n      dup6\n        /* \"#utility.yul\":2963:2986   */\n      sub\n        /* \"#utility.yul\":2959:2991   */\n      slt\n        /* \"#utility.yul\":2956:3075   */\n      iszero\n      tag_174\n      jumpi\n        /* \"#utility.yul\":2994:3073   */\n      tag_175\n      tag_95\n      jump\t// in\n    tag_175:\n        /* \"#utility.yul\":2956:3075   */\n    tag_174:\n        /* \"#utility.yul\":3114:3115   */\n      0x00\n        /* \"#utility.yul\":3139:3192   */\n      tag_176\n        /* \"#utility.yul\":3184:3191   */\n      dup6\n        /* \"#utility.yul\":3175:3181   */\n      dup3\n        /* \"#utility.yul\":3164:3173   */\n      dup7\n        /* \"#utility.yul\":3160:3182   */\n      add\n        /* \"#utility.yul\":3139:3192   */\n      tag_100\n      jump\t// in\n    tag_176:\n        /* \"#utility.yul\":3129:3192   */\n      swap3\n      pop\n        /* \"#utility.yul\":3085:3202   */\n      pop\n        /* \"#utility.yul\":3241:3243   */\n      0x20\n        /* \"#utility.yul\":3267:3317   */\n      tag_177\n        /* \"#utility.yul\":3309:3316   */\n      dup6\n        /* \"#utility.yul\":3300:3306   */\n      dup3\n        /* \"#utility.yul\":3289:3298   */\n      dup7\n        /* \"#utility.yul\":3285:3307   */\n      add\n        /* \"#utility.yul\":3267:3317   */\n      tag_107\n      jump\t// in\n    tag_177:\n        /* \"#utility.yul\":3257:3317   */\n      swap2\n      pop\n        /* \"#utility.yul\":3212:3327   */\n      pop\n        /* \"#utility.yul\":2866:3334   */\n      swap3\n      pop\n      swap3\n      swap1\n      pop\n      jump\t// out\n        /* \"#utility.yul\":3340:3439   */\n    tag_108:\n        /* \"#utility.yul\":3392:3398   */\n      0x00\n        /* \"#utility.yul\":3426:3431   */\n      dup2\n        /* \"#utility.yul\":3420:3432   */\n      mload\n        /* \"#utility.yul\":3410:3432   */\n      swap1\n      pop\n        /* \"#utility.yul\":3340:3439   */\n      swap2\n      swap1\n      pop\n      jump\t// out\n        /* \"#utility.yul\":3445:3614   */\n    tag_109:\n        /* \"#utility.yul\":3529:3540   */\n      0x00\n        /* \"#utility.yul\":3563:3569   */\n      dup3\n        /* \"#utility.yul\":3558:3561   */\n      dup3\n        /* \"#utility.yul\":3551:3570   */\n      mstore\n        /* \"#utility.yul\":3603:3607   */\n      0x20\n        /* \"#utility.yul\":3598:3601   */\n      dup3\n        /* \"#utility.yul\":3594:3608   */\n      add\n        /* \"#utility.yul\":3579:3608   */\n      swap1\n      pop\n        /* \"#utility.yul\":3445:3614   */\n      swap3\n      swap2\n      pop\n      pop\n      jump\t// out\n        /* \"#utility.yul\":3620:3759   */\n    tag_110:\n        /* \"#utility.yul\":3709:3715   */\n      dup3\n        /* \"#utility.yul\":3704:3707   */\n      dup2\n        /* \"#utility.yul\":3699:3702   */\n      dup4\n        /* \"#utility.yul\":3693:3716   */\n      mcopy\n        /* \"#utility.yul\":3750:3751   */\n      0x00\n        /* \"#utility.yul\":3741:3747   */\n      dup4\n        /* \"#utility.yul\":3736:3739   */\n      dup4\n        /* \"#utility.yul\":3732:3748   */\n      add\n        /* \"#utility.yul\":3725:3752   */\n      mstore\n        /* \"#utility.yul\":3620:3759   */\n      pop\n      pop\n      pop\n      jump\t// out\n        /* \"#utility.yul\":3765:3867   */\n    tag_111:\n        /* \"#utility.yul\":3806:3812   */\n      0x00\n        /* \"#utility.yul\":3857:3859   */\n      0x1f\n        /* \"#utility.yul\":3853:3860   */\n      not\n        /* \"#utility.yul\":3848:3850   */\n      0x1f\n        /* \"#utility.yul\":3841:3846   */\n      dup4\n        /* \"#utility.yul\":3837:3851   */\n      add\n        /* \"#utility.yul\":3833:3861   */\n      and\n        /* \"#utility.yul\":3823:3861   */\n      swap1\n      pop\n        /* \"#utility.yul\":3765:3867   */\n      swap2\n      swap1\n      pop\n      jump\t// out\n        /* \"#utility.yul\":3873:4250   */\n    tag_112:\n        /* \"#utility.yul\":3961:3964   */\n      0x00\n        /* \"#utility.yul\":3989:4028   */\n      tag_183\n        /* \"#utility.yul\":4022:4027   */\n      dup3\n        /* \"#utility.yul\":3989:4028   */\n      tag_108\n      jump\t// in\n    tag_183:\n        /* \"#utility.yul\":4044:4115   */\n      tag_184\n        /* \"#utility.yul\":4108:4114   */\n      dup2\n        /* \"#utility.yul\":4103:4106   */\n      dup6\n        /* \"#utility.yul\":4044:4115   */\n      tag_109\n      jump\t// in\n    tag_184:\n        /* \"#utility.yul\":4037:4115   */\n      swap4\n      pop\n        /* \"#utility.yul\":4124:4189   */\n      tag_185\n        /* \"#utility.yul\":4182:4188   */\n      dup2\n        /* \"#utility.yul\":4177:4180   */\n      dup6\n        /* \"#utility.yul\":4170:4174   */\n      0x20\n        /* \"#utility.yul\":4163:4168   */\n      dup7\n        /* \"#utility.yul\":4159:4175   */\n      add\n        /* \"#utility.yul\":4124:4189   */\n      tag_110\n      jump\t// in\n    tag_185:\n        /* \"#utility.yul\":4214:4243   */\n      tag_186\n        /* \"#utility.yul\":4236:4242   */\n      dup2\n        /* \"#utility.yul\":4214:4243   */\n      tag_111\n      jump\t// in\n    tag_186:\n        /* \"#utility.yul\":4209:4212   */\n      dup5\n        /* \"#utility.yul\":4205:4244   */\n      add\n        /* \"#utility.yul\":4198:4244   */\n      swap2\n      pop\n        /* \"#utility.yul\":3965:4250   */\n      pop\n        /* \"#utility.yul\":3873:4250   */\n      swap3\n      swap2\n      pop\n      pop\n      jump\t// out\n        /* \"#utility.yul\":4256:4569   */\n    tag_29:\n        /* \"#utility.yul\":4369:4373   */\n      0x00\n        /* \"#utility.yul\":4407:4409   */\n      0x20\n        /* \"#utility.yul\":4396:4405   */\n      dup3\n        /* \"#utility.yul\":4392:4410   */\n      add\n        /* \"#utility.yul\":4384:4410   */\n      swap1\n      pop\n        /* \"#utility.yul\":4456:4465   */\n      dup2\n        /* \"#utility.yul\":4450:4454   */\n      dup2\n        /* \"#utility.yul\":4446:4466   */\n      sub\n        /* \"#utility.yul\":4442:4443   */\n      0x00\n        /* \"#utility.yul\":4431:4440   */\n      dup4\n        /* \"#utility.yul\":4427:4444   */\n      add\n        /* \"#utility.yul\":4420:4467   */\n      mstore\n        /* \"#utility.yul\":4484:4562   */\n      tag_188\n        /* \"#utility.yul\":4557:4561   */\n      dup2\n        /* \"#utility.yul\":4548:4554   */\n      dup5\n        /* \"#utility.yul\":4484:4562   */\n      tag_112\n      jump\t// in\n    tag_188:\n        /* \"#utility.yul\":4476:4562   */\n      swap1\n      pop\n        /* \"#utility.yul\":4256:4569   */\n      swap3\n      swap2\n      pop\n      pop\n      jump\t// out\n        /* \"#utility.yul\":4575:4743   */\n    tag_113:\n        /* \"#utility.yul\":4715:4735   */\n      0x546f6b656e206973206e6f7420796f7572730000000000000000000000000000\n        /* \"#utility.yul\":4711:4712   */\n      0x00\n        /* \"#utility.yul\":4703:4709   */\n      dup3\n        /* \"#utility.yul\":4699:4713   */\n      add\n        /* \"#utility.yul\":4692:4736   */\n      mstore\n        /* \"#utility.yul\":4575:4743   */\n      pop\n      jump\t// out\n        /* \"#utility.yul\":4749:5115   */\n    tag_114:\n        /* \"#utility.yul\":4891:4894   */\n      0x00\n        /* \"#utility.yul\":4912:4979   */\n      tag_191\n        /* \"#utility.yul\":4976:4978   */\n      0x12\n        /* \"#utility.yul\":4971:4974   */\n      dup4\n        /* \"#utility.yul\":4912:4979   */\n      tag_109\n      jump\t// in\n    tag_191:\n        /* \"#utility.yul\":4905:4979   */\n      swap2\n      pop\n        /* \"#utility.yul\":4988:5081   */\n      tag_192\n        /* \"#utility.yul\":5077:5080   */\n      dup3\n        /* \"#utility.yul\":4988:5081   */\n      tag_113\n      jump\t// in\n    tag_192:\n        /* \"#utility.yul\":5106:5108   */\n      0x20\n        /* \"#utility.yul\":5101:5104   */\n      dup3\n        /* \"#utility.yul\":5097:5109   */\n      add\n        /* \"#utility.yul\":5090:5109   */\n      swap1\n      pop\n        /* \"#utility.yul\":4749:5115   */\n      swap2\n      swap1\n      pop\n      jump\t// out\n        /* \"#utility.yul\":5121:5540   */\n    tag_33:\n        /* \"#utility.yul\":5287:5291   */\n      0x00\n        /* \"#utility.yul\":5325:5327   */\n      0x20\n        /* \"#utility.yul\":5314:5323   */\n      dup3\n        /* \"#utility.yul\":5310:5328   */\n      add\n        /* \"#utility.yul\":5302:5328   */\n      swap1\n      pop\n        /* \"#utility.yul\":5374:5383   */\n      dup2\n        /* \"#utility.yul\":5368:5372   */\n      dup2\n        /* \"#utility.yul\":5364:5384   */\n      sub\n        /* \"#utility.yul\":5360:5361   */\n      0x00\n        /* \"#utility.yul\":5349:5358   */\n      dup4\n        /* \"#utility.yul\":5345:5362   */\n      add\n        /* \"#utility.yul\":5338:5385   */\n      mstore\n        /* \"#utility.yul\":5402:5533   */\n      tag_194\n        /* \"#utility.yul\":5528:5532   */\n      dup2\n        /* \"#utility.yul\":5402:5533   */\n      tag_114\n      jump\t// in\n    tag_194:\n        /* \"#utility.yul\":5394:5533   */\n      swap1\n      pop\n        /* \"#utility.yul\":5121:5540   */\n      swap2\n      swap1\n      pop\n      jump\t// out\n        /* \"#utility.yul\":5546:5711   */\n    tag_115:\n        /* \"#utility.yul\":5686:5703   */\n      0x43616e6e6f74205472616e736665720000000000000000000000000000000000\n        /* \"#utility.yul\":5682:5683   */\n      0x00\n        /* \"#utility.yul\":5674:5680   */\n      dup3\n        /* \"#utility.yul\":5670:5684   */\n      add\n        /* \"#utility.yul\":5663:5704   */\n      mstore\n        /* \"#utility.yul\":5546:5711   */\n      pop\n      jump\t// out\n        /* \"#utility.yul\":5717:6083   */\n    tag_116:\n        /* \"#utility.yul\":5859:5862   */\n      0x00\n        /* \"#utility.yul\":5880:5947   */\n      tag_197\n        /* \"#utility.yul\":5944:5946   */\n      0x0f\n        /* \"#utility.yul\":5939:5942   */\n      dup4\n        /* \"#utility.yul\":5880:5947   */\n      tag_109\n      jump\t// in\n    tag_197:\n        /* \"#utility.yul\":5873:5947   */\n      swap2\n      pop\n        /* \"#utility.yul\":5956:6049   */\n      tag_198\n        /* \"#utility.yul\":6045:6048   */\n      dup3\n        /* \"#utility.yul\":5956:6049   */\n      tag_115\n      jump\t// in\n    tag_198:\n        /* \"#utility.yul\":6074:6076   */\n      0x20\n        /* \"#utility.yul\":6069:6072   */\n      dup3\n        /* \"#utility.yul\":6065:6077   */\n      add\n        /* \"#utility.yul\":6058:6077   */\n      swap1\n      pop\n        /* \"#utility.yul\":5717:6083   */\n      swap2\n      swap1\n      pop\n      jump\t// out\n        /* \"#utility.yul\":6089:6508   */\n    tag_36:\n        /* \"#utility.yul\":6255:6259   */\n      0x00\n        /* \"#utility.yul\":6293:6295   */\n      0x20\n        /* \"#utility.yul\":6282:6291   */\n      dup3\n        /* \"#utility.yul\":6278:6296   */\n      add\n        /* \"#utility.yul\":6270:6296   */\n      swap1\n      pop\n        /* \"#utility.yul\":6342:6351   */\n      dup2\n        /* \"#utility.yul\":6336:6340   */\n      dup2\n        /* \"#utility.yul\":6332:6352   */\n      sub\n        /* \"#utility.yul\":6328:6329   */\n      0x00\n        /* \"#utility.yul\":6317:6326   */\n      dup4\n        /* \"#utility.yul\":6313:6330   */\n      add\n        /* \"#utility.yul\":6306:6353   */\n      mstore\n        /* \"#utility.yul\":6370:6501   */\n      tag_200\n        /* \"#utility.yul\":6496:6500   */\n      dup2\n        /* \"#utility.yul\":6370:6501   */\n      tag_116\n      jump\t// in\n    tag_200:\n        /* \"#utility.yul\":6362:6501   */\n      swap1\n      pop\n        /* \"#utility.yul\":6089:6508   */\n      swap2\n      swap1\n      pop\n      jump\t// out\n        /* \"#utility.yul\":6514:6681   */\n    tag_117:\n        /* \"#utility.yul\":6654:6673   */\n      0x5265717569726520746865204f776e6572000000000000000000000000000000\n        /* \"#utility.yul\":6650:6651   */\n      0x00\n        /* \"#utility.yul\":6642:6648   */\n      dup3\n        /* \"#utility.yul\":6638:6652   */\n      add\n        /* \"#utility.yul\":6631:6674   */\n      mstore\n        /* \"#utility.yul\":6514:6681   */\n      pop\n      jump\t// out\n        /* \"#utility.yul\":6687:7053   */\n    tag_118:\n        /* \"#utility.yul\":6829:6832   */\n      0x00\n        /* \"#utility.yul\":6850:6917   */\n      tag_203\n        /* \"#utility.yul\":6914:6916   */\n      0x11\n        /* \"#utility.yul\":6909:6912   */\n      dup4\n        /* \"#utility.yul\":6850:6917   */\n      tag_109\n      jump\t// in\n    tag_203:\n        /* \"#utility.yul\":6843:6917   */\n      swap2\n      pop\n        /* \"#utility.yul\":6926:7019   */\n      tag_204\n        /* \"#utility.yul\":7015:7018   */\n      dup3\n        /* \"#utility.yul\":6926:7019   */\n      tag_117\n      jump\t// in\n    tag_204:\n        /* \"#utility.yul\":7044:7046   */\n      0x20\n        /* \"#utility.yul\":7039:7042   */\n      dup3\n        /* \"#utility.yul\":7035:7047   */\n      add\n        /* \"#utility.yul\":7028:7047   */\n      swap1\n      pop\n        /* \"#utility.yul\":6687:7053   */\n      swap2\n      swap1\n      pop\n      jump\t// out\n        /* \"#utility.yul\":7059:7478   */\n    tag_40:\n        /* \"#utility.yul\":7225:7229   */\n      0x00\n        /* \"#utility.yul\":7263:7265   */\n      0x20\n        /* \"#utility.yul\":7252:7261   */\n      dup3\n        /* \"#utility.yul\":7248:7266   */\n      add\n        /* \"#utility.yul\":7240:7266   */\n      swap1\n      pop\n        /* \"#utility.yul\":7312:7321   */\n      dup2\n        /* \"#utility.yul\":7306:7310   */\n      dup2\n        /* \"#utility.yul\":7302:7322   */\n      sub\n        /* \"#utility.yul\":7298:7299   */\n      0x00\n        /* \"#utility.yul\":7287:7296   */\n      dup4\n        /* \"#utility.yul\":7283:7300   */\n      add\n        /* \"#utility.yul\":7276:7323   */\n      mstore\n        /* \"#utility.yul\":7340:7471   */\n      tag_206\n        /* \"#utility.yul\":7466:7470   */\n      dup2\n        /* \"#utility.yul\":7340:7471   */\n      tag_118\n      jump\t// in\n    tag_206:\n        /* \"#utility.yul\":7332:7471   */\n      swap1\n      pop\n        /* \"#utility.yul\":7059:7478   */\n      swap2\n      swap1\n      pop\n      jump\t// out\n        /* \"#utility.yul\":7484:7647   */\n    tag_119:\n        /* \"#utility.yul\":7624:7639   */\n      0x4e6f207375636820746f6b656e00000000000000000000000000000000000000\n        /* \"#utility.yul\":7620:7621   */\n      0x00\n        /* \"#utility.yul\":7612:7618   */\n      dup3\n        /* \"#utility.yul\":7608:7622   */\n      add\n        /* \"#utility.yul\":7601:7640   */\n      mstore\n        /* \"#utility.yul\":7484:7647   */\n      pop\n      jump\t// out\n        /* \"#utility.yul\":7653:8019   */\n    tag_120:\n        /* \"#utility.yul\":7795:7798   */\n      0x00\n        /* \"#utility.yul\":7816:7883   */\n      tag_209\n        /* \"#utility.yul\":7880:7882   */\n      0x0d\n        /* \"#utility.yul\":7875:7878   */\n      dup4\n        /* \"#utility.yul\":7816:7883   */\n      tag_109\n      jump\t// in\n    tag_209:\n        /* \"#utility.yul\":7809:7883   */\n      swap2\n      pop\n        /* \"#utility.yul\":7892:7985   */\n      tag_210\n        /* \"#utility.yul\":7981:7984   */\n      dup3\n        /* \"#utility.yul\":7892:7985   */\n      tag_119\n      jump\t// in\n    tag_210:\n        /* \"#utility.yul\":8010:8012   */\n      0x20\n        /* \"#utility.yul\":8005:8008   */\n      dup3\n        /* \"#utility.yul\":8001:8013   */\n      add\n        /* \"#utility.yul\":7994:8013   */\n      swap1\n      pop\n        /* \"#utility.yul\":7653:8019   */\n      swap2\n      swap1\n      pop\n      jump\t// out\n        /* \"#utility.yul\":8025:8444   */\n    tag_44:\n        /* \"#utility.yul\":8191:8195   */\n      0x00\n        /* \"#utility.yul\":8229:8231   */\n      0x20\n        /* \"#utility.yul\":8218:8227   */\n      dup3\n        /* \"#utility.yul\":8214:8232   */\n      add\n        /* \"#utility.yul\":8206:8232   */\n      swap1\n      pop\n        /* \"#utility.yul\":8278:8287   */\n      dup2\n        /* \"#utility.yul\":8272:8276   */\n      dup2\n        /* \"#utility.yul\":8268:8288   */\n      sub\n        /* \"#utility.yul\":8264:8265   */\n      0x00\n        /* \"#utility.yul\":8253:8262   */\n      dup4\n        /* \"#utility.yul\":8249:8266   */\n      add\n        /* \"#utility.yul\":8242:8289   */\n      mstore\n        /* \"#utility.yul\":8306:8437   */\n      tag_212\n        /* \"#utility.yul\":8432:8436   */\n      dup2\n        /* \"#utility.yul\":8306:8437   */\n      tag_120\n      jump\t// in\n    tag_212:\n        /* \"#utility.yul\":8298:8437   */\n      swap1\n      pop\n        /* \"#utility.yul\":8025:8444   */\n      swap2\n      swap1\n      pop\n      jump\t// out\n        /* \"#utility.yul\":8450:8614   */\n    tag_121:\n        /* \"#utility.yul\":8590:8606   */\n      0x416c7265616479204d696e746564000000000000000000000000000000000000\n        /* \"#utility.yul\":8586:8587   */\n      0x00\n        /* \"#utility.yul\":8578:8584   */\n      dup3\n        /* \"#utility.yul\":8574:8588   */\n      add\n        /* \"#utility.yul\":8567:8607   */\n      mstore\n        /* \"#utility.yul\":8450:8614   */\n      pop\n      jump\t// out\n        /* \"#utility.yul\":8620:8986   */\n    tag_122:\n        /* \"#utility.yul\":8762:8765   */\n      0x00\n        /* \"#utility.yul\":8783:8850   */\n      tag_215\n        /* \"#utility.yul\":8847:8849   */\n      0x0e\n        /* \"#utility.yul\":8842:8845   */\n      dup4\n        /* \"#utility.yul\":8783:8850   */\n      tag_109\n      jump\t// in\n    tag_215:\n        /* \"#utility.yul\":8776:8850   */\n      swap2\n      pop\n        /* \"#utility.yul\":8859:8952   */\n      tag_216\n        /* \"#utility.yul\":8948:8951   */\n      dup3\n        /* \"#utility.yul\":8859:8952   */\n      tag_121\n      jump\t// in\n    tag_216:\n        /* \"#utility.yul\":8977:8979   */\n      0x20\n        /* \"#utility.yul\":8972:8975   */\n      dup3\n        /* \"#utility.yul\":8968:8980   */\n      add\n        /* \"#utility.yul\":8961:8980   */\n      swap1\n      pop\n        /* \"#utility.yul\":8620:8986   */\n      swap2\n      swap1\n      pop\n      jump\t// out\n        /* \"#utility.yul\":8992:9411   */\n    tag_48:\n        /* \"#utility.yul\":9158:9162   */\n      0x00\n        /* \"#utility.yul\":9196:9198   */\n      0x20\n        /* \"#utility.yul\":9185:9194   */\n      dup3\n        /* \"#utility.yul\":9181:9199   */\n      add\n        /* \"#utility.yul\":9173:9199   */\n      swap1\n      pop\n        /* \"#utility.yul\":9245:9254   */\n      dup2\n        /* \"#utility.yul\":9239:9243   */\n      dup2\n        /* \"#utility.yul\":9235:9255   */\n      sub\n        /* \"#utility.yul\":9231:9232   */\n      0x00\n        /* \"#utility.yul\":9220:9229   */\n      dup4\n        /* \"#utility.yul\":9216:9233   */\n      add\n        /* \"#utility.yul\":9209:9256   */\n      mstore\n        /* \"#utility.yul\":9273:9404   */\n      tag_218\n        /* \"#utility.yul\":9399:9403   */\n      dup2\n        /* \"#utility.yul\":9273:9404   */\n      tag_122\n      jump\t// in\n    tag_218:\n        /* \"#utility.yul\":9265:9404   */\n      swap1\n      pop\n        /* \"#utility.yul\":8992:9411   */\n      swap2\n      swap1\n      pop\n      jump\t// out\n        /* \"#utility.yul\":9417:9588   */\n    tag_123:\n        /* \"#utility.yul\":9557:9580   */\n      0x546f6b656e20496420697320746f6f204c617267650000000000000000000000\n        /* \"#utility.yul\":9553:9554   */\n      0x00\n        /* \"#utility.yul\":9545:9551   */\n      dup3\n        /* \"#utility.yul\":9541:9555   */\n      add\n        /* \"#utility.yul\":9534:9581   */\n      mstore\n        /* \"#utility.yul\":9417:9588   */\n      pop\n      jump\t// out\n        /* \"#utility.yul\":9594:9960   */\n    tag_124:\n        /* \"#utility.yul\":9736:9739   */\n      0x00\n        /* \"#utility.yul\":9757:9824   */\n      tag_221\n        /* \"#utility.yul\":9821:9823   */\n      0x15\n        /* \"#utility.yul\":9816:9819   */\n      dup4\n        /* \"#utility.yul\":9757:9824   */\n      tag_109\n      jump\t// in\n    tag_221:\n        /* \"#utility.yul\":9750:9824   */\n      swap2\n      pop\n        /* \"#utility.yul\":9833:9926   */\n      tag_222\n        /* \"#utility.yul\":9922:9925   */\n      dup3\n        /* \"#utility.yul\":9833:9926   */\n      tag_123\n      jump\t// in\n    tag_222:\n        /* \"#utility.yul\":9951:9953   */\n      0x20\n        /* \"#utility.yul\":9946:9949   */\n      dup3\n        /* \"#utility.yul\":9942:9954   */\n      add\n        /* \"#utility.yul\":9935:9954   */\n      swap1\n      pop\n        /* \"#utility.yul\":9594:9960   */\n      swap2\n      swap1\n      pop\n      jump\t// out\n        /* \"#utility.yul\":9966:10385   */\n    tag_51:\n        /* \"#utility.yul\":10132:10136   */\n      0x00\n        /* \"#utility.yul\":10170:10172   */\n      0x20\n        /* \"#utility.yul\":10159:10168   */\n      dup3\n        /* \"#utility.yul\":10155:10173   */\n      add\n        /* \"#utility.yul\":10147:10173   */\n      swap1\n      pop\n        /* \"#utility.yul\":10219:10228   */\n      dup2\n        /* \"#utility.yul\":10213:10217   */\n      dup2\n        /* \"#utility.yul\":10209:10229   */\n      sub\n        /* \"#utility.yul\":10205:10206   */\n      0x00\n        /* \"#utility.yul\":10194:10203   */\n      dup4\n        /* \"#utility.yul\":10190:10207   */\n      add\n        /* \"#utility.yul\":10183:10230   */\n      mstore\n        /* \"#utility.yul\":10247:10378   */\n      tag_224\n        /* \"#utility.yul\":10373:10377   */\n      dup2\n        /* \"#utility.yul\":10247:10378   */\n      tag_124\n      jump\t// in\n    tag_224:\n        /* \"#utility.yul\":10239:10378   */\n      swap1\n      pop\n        /* \"#utility.yul\":9966:10385   */\n      swap2\n      swap1\n      pop\n      jump\t// out\n        /* \"#utility.yul\":10391:10555   */\n    tag_125:\n        /* \"#utility.yul\":10531:10547   */\n      0x446f6573206e6f74206578697374000000000000000000000000000000000000\n        /* \"#utility.yul\":10527:10528   */\n      0x00\n        /* \"#utility.yul\":10519:10525   */\n      dup3\n        /* \"#utility.yul\":10515:10529   */\n      add\n        /* \"#utility.yul\":10508:10548   */\n      mstore\n        /* \"#utility.yul\":10391:10555   */\n      pop\n      jump\t// out\n        /* \"#utility.yul\":10561:10927   */\n    tag_126:\n        /* \"#utility.yul\":10703:10706   */\n      0x00\n        /* \"#utility.yul\":10724:10791   */\n      tag_227\n        /* \"#utility.yul\":10788:10790   */\n      0x0e\n        /* \"#utility.yul\":10783:10786   */\n      dup4\n        /* \"#utility.yul\":10724:10791   */\n      tag_109\n      jump\t// in\n    tag_227:\n        /* \"#utility.yul\":10717:10791   */\n      swap2\n      pop\n        /* \"#utility.yul\":10800:10893   */\n      tag_228\n        /* \"#utility.yul\":10889:10892   */\n      dup3\n        /* \"#utility.yul\":10800:10893   */\n      tag_125\n      jump\t// in\n    tag_228:\n        /* \"#utility.yul\":10918:10920   */\n      0x20\n        /* \"#utility.yul\":10913:10916   */\n      dup3\n        /* \"#utility.yul\":10909:10921   */\n      add\n        /* \"#utility.yul\":10902:10921   */\n      swap1\n      pop\n        /* \"#utility.yul\":10561:10927   */\n      swap2\n      swap1\n      pop\n      jump\t// out\n        /* \"#utility.yul\":10933:11352   */\n    tag_56:\n        /* \"#utility.yul\":11099:11103   */\n      0x00\n        /* \"#utility.yul\":11137:11139   */\n      0x20\n        /* \"#utility.yul\":11126:11135   */\n      dup3\n        /* \"#utility.yul\":11122:11140   */\n      add\n        /* \"#utility.yul\":11114:11140   */\n      swap1\n      pop\n        /* \"#utility.yul\":11186:11195   */\n      dup2\n        /* \"#utility.yul\":11180:11184   */\n      dup2\n        /* \"#utility.yul\":11176:11196   */\n      sub\n        /* \"#utility.yul\":11172:11173   */\n      0x00\n        /* \"#utility.yul\":11161:11170   */\n      dup4\n        /* \"#utility.yul\":11157:11174   */\n      add\n        /* \"#utility.yul\":11150:11197   */\n      mstore\n        /* \"#utility.yul\":11214:11345   */\n      tag_230\n        /* \"#utility.yul\":11340:11344   */\n      dup2\n        /* \"#utility.yul\":11214:11345   */\n      tag_126\n      jump\t// in\n    tag_230:\n        /* \"#utility.yul\":11206:11345   */\n      swap1\n      pop\n        /* \"#utility.yul\":10933:11352   */\n      swap2\n      swap1\n      pop\n      jump\t// out\n        /* \"#utility.yul\":11358:11538   */\n    tag_127:\n        /* \"#utility.yul\":11406:11483   */\n      0x4e487b7100000000000000000000000000000000000000000000000000000000\n        /* \"#utility.yul\":11403:11404   */\n      0x00\n        /* \"#utility.yul\":11396:11484   */\n      mstore\n        /* \"#utility.yul\":11503:11507   */\n      0x22\n        /* \"#utility.yul\":11500:11501   */\n      0x04\n        /* \"#utility.yul\":11493:11508   */\n      mstore\n        /* \"#utility.yul\":11527:11531   */\n      0x24\n        /* \"#utility.yul\":11524:11525   */\n      0x00\n        /* \"#utility.yul\":11517:11532   */\n      revert\n        /* \"#utility.yul\":11544:11864   */\n    tag_128:\n        /* \"#utility.yul\":11588:11594   */\n      0x00\n        /* \"#utility.yul\":11625:11626   */\n      0x02\n        /* \"#utility.yul\":11619:11623   */\n      dup3\n        /* \"#utility.yul\":11615:11627   */\n      div\n        /* \"#utility.yul\":11605:11627   */\n      swap1\n      pop\n        /* \"#utility.yul\":11672:11673   */\n      0x01\n        /* \"#utility.yul\":11666:11670   */\n      dup3\n        /* \"#utility.yul\":11662:11674   */\n      and\n        /* \"#utility.yul\":11693:11711   */\n      dup1\n        /* \"#utility.yul\":11683:11764   */\n      tag_233\n      jumpi\n        /* \"#utility.yul\":11749:11753   */\n      0x7f\n        /* \"#utility.yul\":11741:11747   */\n      dup3\n        /* \"#utility.yul\":11737:11754   */\n      and\n        /* \"#utility.yul\":11727:11754   */\n      swap2\n      pop\n        /* \"#utility.yul\":11683:11764   */\n    tag_233:\n        /* \"#utility.yul\":11811:11813   */\n      0x20\n        /* \"#utility.yul\":11803:11809   */\n      dup3\n        /* \"#utility.yul\":11800:11814   */\n      lt\n        /* \"#utility.yul\":11780:11798   */\n      dup2\n        /* \"#utility.yul\":11777:11815   */\n      sub\n        /* \"#utility.yul\":11774:11858   */\n      tag_234\n      jumpi\n        /* \"#utility.yul\":11830:11848   */\n      tag_235\n      tag_127\n      jump\t// in\n    tag_235:\n        /* \"#utility.yul\":11774:11858   */\n    tag_234:\n        /* \"#utility.yul\":11595:11864   */\n      pop\n        /* \"#utility.yul\":11544:11864   */\n      swap2\n      swap1\n      pop\n      jump\t// out\n        /* \"#utility.yul\":11870:12018   */\n    tag_129:\n        /* \"#utility.yul\":11972:11983   */\n      0x00\n        /* \"#utility.yul\":12009:12012   */\n      dup2\n        /* \"#utility.yul\":11994:12012   */\n      swap1\n      pop\n        /* \"#utility.yul\":11870:12018   */\n      swap3\n      swap2\n      pop\n      pop\n      jump\t// out\n        /* \"#utility.yul\":12024:12165   */\n    tag_130:\n        /* \"#utility.yul\":12073:12077   */\n      0x00\n        /* \"#utility.yul\":12096:12099   */\n      dup2\n        /* \"#utility.yul\":12088:12099   */\n      swap1\n      pop\n        /* \"#utility.yul\":12119:12122   */\n      dup2\n        /* \"#utility.yul\":12116:12117   */\n      0x00\n        /* \"#utility.yul\":12109:12123   */\n      mstore\n        /* \"#utility.yul\":12153:12157   */\n      0x20\n        /* \"#utility.yul\":12150:12151   */\n      0x00\n        /* \"#utility.yul\":12140:12158   */\n      keccak256\n        /* \"#utility.yul\":12132:12158   */\n      swap1\n      pop\n        /* \"#utility.yul\":12024:12165   */\n      swap2\n      swap1\n      pop\n      jump\t// out\n        /* \"#utility.yul\":12195:13069   */\n    tag_131:\n        /* \"#utility.yul\":12298:12301   */\n      0x00\n        /* \"#utility.yul\":12335:12340   */\n      dup2\n        /* \"#utility.yul\":12329:12341   */\n      sload\n        /* \"#utility.yul\":12364:12400   */\n      tag_239\n        /* \"#utility.yul\":12390:12399   */\n      dup2\n        /* \"#utility.yul\":12364:12400   */\n      tag_128\n      jump\t// in\n    tag_239:\n        /* \"#utility.yul\":12416:12505   */\n      tag_240\n        /* \"#utility.yul\":12498:12504   */\n      dup2\n        /* \"#utility.yul\":12493:12496   */\n      dup7\n        /* \"#utility.yul\":12416:12505   */\n      tag_129\n      jump\t// in\n    tag_240:\n        /* \"#utility.yul\":12409:12505   */\n      swap5\n      pop\n        /* \"#utility.yul\":12536:12537   */\n      0x01\n        /* \"#utility.yul\":12525:12534   */\n      dup3\n        /* \"#utility.yul\":12521:12538   */\n      and\n        /* \"#utility.yul\":12552:12553   */\n      0x00\n        /* \"#utility.yul\":12547:12713   */\n      dup2\n      eq\n      tag_242\n      jumpi\n        /* \"#utility.yul\":12727:12728   */\n      0x01\n        /* \"#utility.yul\":12722:13063   */\n      dup2\n      eq\n      tag_243\n      jumpi\n        /* \"#utility.yul\":12514:13063   */\n      jump(tag_241)\n        /* \"#utility.yul\":12547:12713   */\n    tag_242:\n        /* \"#utility.yul\":12631:12635   */\n      0xff\n        /* \"#utility.yul\":12627:12636   */\n      not\n        /* \"#utility.yul\":12616:12625   */\n      dup4\n        /* \"#utility.yul\":12612:12637   */\n      and\n        /* \"#utility.yul\":12607:12610   */\n      dup7\n        /* \"#utility.yul\":12600:12638   */\n      mstore\n        /* \"#utility.yul\":12693:12699   */\n      dup2\n        /* \"#utility.yul\":12686:12700   */\n      iszero\n        /* \"#utility.yul\":12679:12701   */\n      iszero\n        /* \"#utility.yul\":12671:12677   */\n      dup3\n        /* \"#utility.yul\":12667:12702   */\n      mul\n        /* \"#utility.yul\":12662:12665   */\n      dup7\n        /* \"#utility.yul\":12658:12703   */\n      add\n        /* \"#utility.yul\":12651:12703   */\n      swap4\n      pop\n        /* \"#utility.yul\":12547:12713   */\n      jump(tag_241)\n        /* \"#utility.yul\":12722:13063   */\n    tag_243:\n        /* \"#utility.yul\":12789:12827   */\n      tag_244\n        /* \"#utility.yul\":12821:12826   */\n      dup6\n        /* \"#utility.yul\":12789:12827   */\n      tag_130\n      jump\t// in\n    tag_244:\n        /* \"#utility.yul\":12849:12850   */\n      0x00\n        /* \"#utility.yul\":12863:13017   */\n    tag_245:\n        /* \"#utility.yul\":12877:12883   */\n      dup4\n        /* \"#utility.yul\":12874:12875   */\n      dup2\n        /* \"#utility.yul\":12871:12884   */\n      lt\n        /* \"#utility.yul\":12863:13017   */\n      iszero\n      tag_247\n      jumpi\n        /* \"#utility.yul\":12951:12958   */\n      dup2\n        /* \"#utility.yul\":12945:12959   */\n      sload\n        /* \"#utility.yul\":12941:12942   */\n      dup2\n        /* \"#utility.yul\":12936:12939   */\n      dup10\n        /* \"#utility.yul\":12932:12943   */\n      add\n        /* \"#utility.yul\":12925:12960   */\n      mstore\n        /* \"#utility.yul\":13001:13002   */\n      0x01\n        /* \"#utility.yul\":12992:12999   */\n      dup3\n        /* \"#utility.yul\":12988:13003   */\n      add\n        /* \"#utility.yul\":12977:13003   */\n      swap2\n      pop\n        /* \"#utility.yul\":12899:12903   */\n      0x20\n        /* \"#utility.yul\":12896:12897   */\n      dup2\n        /* \"#utility.yul\":12892:12904   */\n      add\n        /* \"#utility.yul\":12887:12904   */\n      swap1\n      pop\n        /* \"#utility.yul\":12863:13017   */\n      jump(tag_245)\n    tag_247:\n        /* \"#utility.yul\":13046:13052   */\n      dup4\n        /* \"#utility.yul\":13041:13044   */\n      dup9\n        /* \"#utility.yul\":13037:13053   */\n      add\n        /* \"#utility.yul\":13030:13053   */\n      swap6\n      pop\n        /* \"#utility.yul\":12729:13063   */\n      pop\n      pop\n        /* \"#utility.yul\":12514:13063   */\n    tag_241:\n      pop\n        /* \"#utility.yul\":12302:13069   */\n      pop\n      pop\n        /* \"#utility.yul\":12195:13069   */\n      swap3\n      swap2\n      pop\n      pop\n      jump\t// out\n        /* \"#utility.yul\":13075:13465   */\n    tag_132:\n        /* \"#utility.yul\":13181:13184   */\n      0x00\n        /* \"#utility.yul\":13209:13248   */\n      tag_249\n        /* \"#utility.yul\":13242:13247   */\n      dup3\n        /* \"#utility.yul\":13209:13248   */\n      tag_108\n      jump\t// in\n    tag_249:\n        /* \"#utility.yul\":13264:13353   */\n      tag_250\n        /* \"#utility.yul\":13346:13352   */\n      dup2\n        /* \"#utility.yul\":13341:13344   */\n      dup6\n        /* \"#utility.yul\":13264:13353   */\n      tag_129\n      jump\t// in\n    tag_250:\n        /* \"#utility.yul\":13257:13353   */\n      swap4\n      pop\n        /* \"#utility.yul\":13362:13427   */\n      tag_251\n        /* \"#utility.yul\":13420:13426   */\n      dup2\n        /* \"#utility.yul\":13415:13418   */\n      dup6\n        /* \"#utility.yul\":13408:13412   */\n      0x20\n        /* \"#utility.yul\":13401:13406   */\n      dup7\n        /* \"#utility.yul\":13397:13413   */\n      add\n        /* \"#utility.yul\":13362:13427   */\n      tag_110\n      jump\t// in\n    tag_251:\n        /* \"#utility.yul\":13452:13458   */\n      dup1\n        /* \"#utility.yul\":13447:13450   */\n      dup5\n        /* \"#utility.yul\":13443:13459   */\n      add\n        /* \"#utility.yul\":13436:13459   */\n      swap2\n      pop\n        /* \"#utility.yul\":13185:13465   */\n      pop\n        /* \"#utility.yul\":13075:13465   */\n      swap3\n      swap2\n      pop\n      pop\n      jump\t// out\n        /* \"#utility.yul\":13471:13626   */\n    tag_133:\n        /* \"#utility.yul\":13611:13618   */\n      0x2e6a706567000000000000000000000000000000000000000000000000000000\n        /* \"#utility.yul\":13607:13608   */\n      0x00\n        /* \"#utility.yul\":13599:13605   */\n      dup3\n        /* \"#utility.yul\":13595:13609   */\n      add\n        /* \"#utility.yul\":13588:13619   */\n      mstore\n        /* \"#utility.yul\":13471:13626   */\n      pop\n      jump\t// out\n        /* \"#utility.yul\":13632:14032   */\n    tag_134:\n        /* \"#utility.yul\":13792:13795   */\n      0x00\n        /* \"#utility.yul\":13813:13897   */\n      tag_254\n        /* \"#utility.yul\":13895:13896   */\n      0x05\n        /* \"#utility.yul\":13890:13893   */\n      dup4\n        /* \"#utility.yul\":13813:13897   */\n      tag_129\n      jump\t// in\n    tag_254:\n        /* \"#utility.yul\":13806:13897   */\n      swap2\n      pop\n        /* \"#utility.yul\":13906:13999   */\n      tag_255\n        /* \"#utility.yul\":13995:13998   */\n      dup3\n        /* \"#utility.yul\":13906:13999   */\n      tag_133\n      jump\t// in\n    tag_255:\n        /* \"#utility.yul\":14024:14025   */\n      0x05\n        /* \"#utility.yul\":14019:14022   */\n      dup3\n        /* \"#utility.yul\":14015:14026   */\n      add\n        /* \"#utility.yul\":14008:14026   */\n      swap1\n      pop\n        /* \"#utility.yul\":13632:14032   */\n      swap2\n      swap1\n      pop\n      jump\t// out\n        /* \"#utility.yul\":14038:14733   */\n    tag_60:\n        /* \"#utility.yul\":14316:14319   */\n      0x00\n        /* \"#utility.yul\":14338:14430   */\n      tag_257\n        /* \"#utility.yul\":14426:14429   */\n      dup3\n        /* \"#utility.yul\":14417:14423   */\n      dup6\n        /* \"#utility.yul\":14338:14430   */\n      tag_131\n      jump\t// in\n    tag_257:\n        /* \"#utility.yul\":14331:14430   */\n      swap2\n      pop\n        /* \"#utility.yul\":14447:14542   */\n      tag_258\n        /* \"#utility.yul\":14538:14541   */\n      dup3\n        /* \"#utility.yul\":14529:14535   */\n      dup5\n        /* \"#utility.yul\":14447:14542   */\n      tag_132\n      jump\t// in\n    tag_258:\n        /* \"#utility.yul\":14440:14542   */\n      swap2\n      pop\n        /* \"#utility.yul\":14559:14707   */\n      tag_259\n        /* \"#utility.yul\":14703:14706   */\n      dup3\n        /* \"#utility.yul\":14559:14707   */\n      tag_134\n      jump\t// in\n    tag_259:\n        /* \"#utility.yul\":14552:14707   */\n      swap2\n      pop\n        /* \"#utility.yul\":14724:14727   */\n      dup2\n        /* \"#utility.yul\":14717:14727   */\n      swap1\n      pop\n        /* \"#utility.yul\":14038:14733   */\n      swap4\n      swap3\n      pop\n      pop\n      pop\n      jump\t// out\n        /* \"#utility.yul\":14739:14919   */\n    tag_66:\n        /* \"#utility.yul\":14787:14864   */\n      0x4e487b7100000000000000000000000000000000000000000000000000000000\n        /* \"#utility.yul\":14784:14785   */\n      0x00\n        /* \"#utility.yul\":14777:14865   */\n      mstore\n        /* \"#utility.yul\":14884:14888   */\n      0x41\n        /* \"#utility.yul\":14881:14882   */\n      0x04\n        /* \"#utility.yul\":14874:14889   */\n      mstore\n        /* \"#utility.yul\":14908:14912   */\n      0x24\n        /* \"#utility.yul\":14905:14906   */\n      0x00\n        /* \"#utility.yul\":14898:14913   */\n      revert\n        /* \"#utility.yul\":14925:15105   */\n    tag_72:\n        /* \"#utility.yul\":14973:15050   */\n      0x4e487b7100000000000000000000000000000000000000000000000000000000\n        /* \"#utility.yul\":14970:14971   */\n      0x00\n        /* \"#utility.yul\":14963:15051   */\n      mstore\n        /* \"#utility.yul\":15070:15074   */\n      0x12\n        /* \"#utility.yul\":15067:15068   */\n      0x04\n        /* \"#utility.yul\":15060:15075   */\n      mstore\n        /* \"#utility.yul\":15094:15098   */\n      0x24\n        /* \"#utility.yul\":15091:15092   */\n      0x00\n        /* \"#utility.yul\":15084:15099   */\n      revert\n\n    auxdata: 0xa2646970667358221220e6bfd7eea1970a0a96e1301686f726a07e792a73ffc4539a679882566954188764736f6c634300081a0033\n}\n",
				"bytecode": {
					"linkReferences": {},
					"object": "60806040526040518060400160405280601981526020017f687474703a2f2f6578616d706c652e636f6d2f696d6167657300000000000000815250600290816100489190610294565b50348015610054575f80fd5b50610363565b5f81519050919050565b7f4e487b71000000000000000000000000000000000000000000000000000000005f52604160045260245ffd5b7f4e487b71000000000000000000000000000000000000000000000000000000005f52602260045260245ffd5b5f60028204905060018216806100d557607f821691505b6020821081036100e8576100e7610091565b5b50919050565b5f819050815f5260205f209050919050565b5f6020601f8301049050919050565b5f82821b905092915050565b5f6008830261014a7fffffffffffffffffffffffffffffffffffffffffffffffffffffffffffffffff8261010f565b610154868361010f565b95508019841693508086168417925050509392505050565b5f819050919050565b5f819050919050565b5f61019861019361018e8461016c565b610175565b61016c565b9050919050565b5f819050919050565b6101b18361017e565b6101c56101bd8261019f565b84845461011b565b825550505050565b5f90565b6101d96101cd565b6101e48184846101a8565b505050565b5b81811015610207576101fc5f826101d1565b6001810190506101ea565b5050565b601f82111561024c5761021d816100ee565b61022684610100565b81016020851015610235578190505b61024961024185610100565b8301826101e9565b50505b505050565b5f82821c905092915050565b5f61026c5f1984600802610251565b1980831691505092915050565b5f610284838361025d565b9150826002028217905092915050565b61029d8261005a565b67ffffffffffffffff8111156102b6576102b5610064565b5b6102c082546100be565b6102cb82828561020b565b5f60209050601f8311600181146102fc575f84156102ea578287015190505b6102f48582610279565b86555061035b565b601f19841661030a866100ee565b5f5b828110156103315784890151825560018201915060208501945060208101905061030c565b8683101561034e578489015161034a601f89168261025d565b8355505b6001600288020188555050505b505050505050565b6110e8806103705f395ff3fe608060405234801561000f575f80fd5b5060043610610055575f3560e01c806323b872dd146100595780636352211e14610075578063a0712d68146100a5578063a22cb465146100c1578063c87b56dd146100dd575b5f80fd5b610073600480360381019061006e9190610a39565b61010d565b005b61008f600480360381019061008a9190610a89565b610423565b60405161009c9190610ac3565b60405180910390f35b6100bf60048036038101906100ba9190610a89565b6104f8565b005b6100db60048036038101906100d69190610b11565b610629565b005b6100f760048036038101906100f29190610a89565b6106bc565b6040516101049190610bbf565b60405180910390f35b5f73ffffffffffffffffffffffffffffffffffffffff165f808381526020019081526020015f205f9054906101000a900473ffffffffffffffffffffffffffffffffffffffff1673ffffffffffffffffffffffffffffffffffffffff16036101aa576040517f08c379a00000000000000000000000000000000000000000000000000000000081526004016101a190610c29565b60405180910390fd5b8273ffffffffffffffffffffffffffffffffffffffff165f808381526020019081526020015f205f9054906101000a900473ffffffffffffffffffffffffffffffffffffffff1673ffffffffffffffffffffffffffffffffffffffff1614610247576040517f08c379a000000000000000000000000000000000000000000000000000000000815260040161023e90610c91565b60405180910390fd5b8273ffffffffffffffffffffffffffffffffffffffff163373ffffffffffffffffffffffffffffffffffffffff161480610302575060015f8473ffffffffffffffffffffffffffffffffffffffff1673ffffffffffffffffffffffffffffffffffffffff1681526020019081526020015f205f3373ffffffffffffffffffffffffffffffffffffffff1673ffffffffffffffffffffffffffffffffffffffff1681526020019081526020015f205f9054906101000a900460ff165b610341576040517f08c379a000000000000000000000000000000000000000000000000000000000815260040161033890610cf9565b60405180910390fd5b5f60015f8573ffffffffffffffffffffffffffffffffffffffff1673ffffffffffffffffffffffffffffffffffffffff1681526020019081526020015f205f3373ffffffffffffffffffffffffffffffffffffffff1673ffffffffffffffffffffffffffffffffffffffff1681526020019081526020015f205f6101000a81548160ff021916908315150217905550815f808381526020019081526020015f205f6101000a81548173ffffffffffffffffffffffffffffffffffffffff021916908373ffffffffffffffffffffffffffffffffffffffff160217905550505050565b5f8073ffffffffffffffffffffffffffffffffffffffff165f808481526020019081526020015f205f9054906101000a900473ffffffffffffffffffffffffffffffffffffffff1673ffffffffffffffffffffffffffffffffffffffff16036104c1576040517f08c379a00000000000000000000000000000000000000000000000000000000081526004016104b890610d61565b60405180910390fd5b5f808381526020019081526020015f205f9054906101000a900473ffffffffffffffffffffffffffffffffffffffff169050919050565b5f73ffffffffffffffffffffffffffffffffffffffff165f808381526020019081526020015f205f9054906101000a900473ffffffffffffffffffffffffffffffffffffffff1673ffffffffffffffffffffffffffffffffffffffff1614610595576040517f08c379a000000000000000000000000000000000000000000000000000000000815260040161058c90610dc9565b60405180910390fd5b606481106105d8576040517f08c379a00000000000000000000000000000000000000000000000000000000081526004016105cf90610e31565b60405180910390fd5b335f808381526020019081526020015f205f6101000a81548173ffffffffffffffffffffffffffffffffffffffff021916908373ffffffffffffffffffffffffffffffffffffffff16021790555050565b8060015f3373ffffffffffffffffffffffffffffffffffffffff1673ffffffffffffffffffffffffffffffffffffffff1681526020019081526020015f205f8473ffffffffffffffffffffffffffffffffffffffff1673ffffffffffffffffffffffffffffffffffffffff1681526020019081526020015f205f6101000a81548160ff0219169083151502179055505050565b60605f73ffffffffffffffffffffffffffffffffffffffff165f808481526020019081526020015f205f9054906101000a900473ffffffffffffffffffffffffffffffffffffffff1673ffffffffffffffffffffffffffffffffffffffff160361075b576040517f08c379a000000000000000000000000000000000000000000000000000000000815260040161075290610e99565b60405180910390fd5b60026107668361078d565b60405160200161077792919061102a565b6040516020818303038152906040529050919050565b60605f600161079b84610857565b0190505f8167ffffffffffffffff8111156107b9576107b8611058565b5b6040519080825280601f01601f1916602001820160405280156107eb5781602001600182028036833780820191505090505b5090505f82602001820190505b60011561084c578080600190039150507f3031323334353637383961626364656600000000000000000000000000000000600a86061a8153600a858161084157610840611085565b5b0494505f85036107f8575b819350505050919050565b5f805f90507a184f03e93ff9f4daa797ed6e38ed64bf6a1f01000000000000000083106108b3577a184f03e93ff9f4daa797ed6e38ed64bf6a1f01000000000000000083816108a9576108a8611085565b5b0492506040810190505b6d04ee2d6d415b85acef810000000083106108f0576d04ee2d6d415b85acef810000000083816108e6576108e5611085565b5b0492506020810190505b662386f26fc10000831061091f57662386f26fc10000838161091557610914611085565b5b0492506010810190505b6305f5e1008310610948576305f5e100838161093e5761093d611085565b5b0492506008810190505b612710831061096d57612710838161096357610962611085565b5b0492506004810190505b60648310610990576064838161098657610985611085565b5b0492506002810190505b600a831061099f576001810190505b80915050919050565b5f80fd5b5f73ffffffffffffffffffffffffffffffffffffffff82169050919050565b5f6109d5826109ac565b9050919050565b6109e5816109cb565b81146109ef575f80fd5b50565b5f81359050610a00816109dc565b92915050565b5f819050919050565b610a1881610a06565b8114610a22575f80fd5b50565b5f81359050610a3381610a0f565b92915050565b5f805f60608486031215610a5057610a4f6109a8565b5b5f610a5d868287016109f2565b9350506020610a6e868287016109f2565b9250506040610a7f86828701610a25565b9150509250925092565b5f60208284031215610a9e57610a9d6109a8565b5b5f610aab84828501610a25565b91505092915050565b610abd816109cb565b82525050565b5f602082019050610ad65f830184610ab4565b92915050565b5f8115159050919050565b610af081610adc565b8114610afa575f80fd5b50565b5f81359050610b0b81610ae7565b92915050565b5f8060408385031215610b2757610b266109a8565b5b5f610b34858286016109f2565b9250506020610b4585828601610afd565b9150509250929050565b5f81519050919050565b5f82825260208201905092915050565b8281835e5f83830152505050565b5f601f19601f8301169050919050565b5f610b9182610b4f565b610b9b8185610b59565b9350610bab818560208601610b69565b610bb481610b77565b840191505092915050565b5f6020820190508181035f830152610bd78184610b87565b905092915050565b7f546f6b656e206973206e6f7420796f75727300000000000000000000000000005f82015250565b5f610c13601283610b59565b9150610c1e82610bdf565b602082019050919050565b5f6020820190508181035f830152610c4081610c07565b9050919050565b7f43616e6e6f74205472616e7366657200000000000000000000000000000000005f82015250565b5f610c7b600f83610b59565b9150610c8682610c47565b602082019050919050565b5f6020820190508181035f830152610ca881610c6f565b9050919050565b7f5265717569726520746865204f776e65720000000000000000000000000000005f82015250565b5f610ce3601183610b59565b9150610cee82610caf565b602082019050919050565b5f6020820190508181035f830152610d1081610cd7565b9050919050565b7f4e6f207375636820746f6b656e000000000000000000000000000000000000005f82015250565b5f610d4b600d83610b59565b9150610d5682610d17565b602082019050919050565b5f6020820190508181035f830152610d7881610d3f565b9050919050565b7f416c7265616479204d696e7465640000000000000000000000000000000000005f82015250565b5f610db3600e83610b59565b9150610dbe82610d7f565b602082019050919050565b5f6020820190508181035f830152610de081610da7565b9050919050565b7f546f6b656e20496420697320746f6f204c6172676500000000000000000000005f82015250565b5f610e1b601583610b59565b9150610e2682610de7565b602082019050919050565b5f6020820190508181035f830152610e4881610e0f565b9050919050565b7f446f6573206e6f742065786973740000000000000000000000000000000000005f82015250565b5f610e83600e83610b59565b9150610e8e82610e4f565b602082019050919050565b5f6020820190508181035f830152610eb081610e77565b9050919050565b7f4e487b71000000000000000000000000000000000000000000000000000000005f52602260045260245ffd5b5f6002820490506001821680610efb57607f821691505b602082108103610f0e57610f0d610eb7565b5b50919050565b5f81905092915050565b5f819050815f5260205f209050919050565b5f8154610f3c81610ee4565b610f468186610f14565b9450600182165f8114610f605760018114610f7557610fa7565b60ff1983168652811515820286019350610fa7565b610f7e85610f1e565b5f5b83811015610f9f57815481890152600182019150602081019050610f80565b838801955050505b50505092915050565b5f610fba82610b4f565b610fc48185610f14565b9350610fd4818560208601610b69565b80840191505092915050565b7f2e6a7065670000000000000000000000000000000000000000000000000000005f82015250565b5f611014600583610f14565b915061101f82610fe0565b600582019050919050565b5f6110358285610f30565b91506110418284610fb0565b915061104c82611008565b91508190509392505050565b7f4e487b71000000000000000000000000000000000000000000000000000000005f52604160045260245ffd5b7f4e487b71000000000000000000000000000000000000000000000000000000005f52601260045260245ffdfea2646970667358221220e6bfd7eea1970a0a96e1301686f726a07e792a73ffc4539a679882566954188764736f6c634300081a0033",
					"opcodes": "PUSH1 0x80 PUSH1 0x40 MSTORE PUSH1 0x40 MLOAD DUP1 PUSH1 0x40 ADD PUSH1 0x40 MSTORE DUP1 PUSH1 0x19 DUP2 MSTORE PUSH1 0x20 ADD PUSH32 0x687474703A2F2F6578616D706C652E636F6D2F696D6167657300000000000000 DUP2 MSTORE POP PUSH1 0x2 SWAP1 DUP2 PUSH2 0x48 SWAP2 SWAP1 PUSH2 0x294 JUMP JUMPDEST POP CALLVALUE DUP1 ISZERO PUSH2 0x54 JUMPI PUSH0 DUP1 REVERT JUMPDEST POP PUSH2 0x363 JUMP JUMPDEST PUSH0 DUP2 MLOAD SWAP1 POP SWAP2 SWAP1 POP JUMP JUMPDEST PUSH32 0x4E487B7100000000000000000000000000000000000000000000000000000000 PUSH0 MSTORE PUSH1 0x41 PUSH1 0x4 MSTORE PUSH1 0x24 PUSH0 REVERT JUMPDEST PUSH32 0x4E487B7100000000000000000000000000000000000000000000000000000000 PUSH0 MSTORE PUSH1 0x22 PUSH1 0x4 MSTORE PUSH1 0x24 PUSH0 REVERT JUMPDEST PUSH0 PUSH1 0x2 DUP3 DIV SWAP1 POP PUSH1 0x1 DUP3 AND DUP1 PUSH2 0xD5 JUMPI PUSH1 0x7F DUP3 AND SWAP2 POP JUMPDEST PUSH1 0x20 DUP3 LT DUP2 SUB PUSH2 0xE8 JUMPI PUSH2 0xE7 PUSH2 0x91 JUMP JUMPDEST JUMPDEST POP SWAP2 SWAP1 POP JUMP JUMPDEST PUSH0 DUP2 SWAP1 POP DUP2 PUSH0 MSTORE PUSH1 0x20 PUSH0 KECCAK256 SWAP1 POP SWAP2 SWAP1 POP JUMP JUMPDEST PUSH0 PUSH1 0x20 PUSH1 0x1F DUP4 ADD DIV SWAP1 POP SWAP2 SWAP1 POP JUMP JUMPDEST PUSH0 DUP3 DUP3 SHL SWAP1 POP SWAP3 SWAP2 POP POP JUMP JUMPDEST PUSH0 PUSH1 0x8 DUP4 MUL PUSH2 0x14A PUSH32 0xFFFFFFFFFFFFFFFFFFFFFFFFFFFFFFFFFFFFFFFFFFFFFFFFFFFFFFFFFFFFFFFF DUP3 PUSH2 0x10F JUMP JUMPDEST PUSH2 0x154 DUP7 DUP4 PUSH2 0x10F JUMP JUMPDEST SWAP6 POP DUP1 NOT DUP5 AND SWAP4 POP DUP1 DUP7 AND DUP5 OR SWAP3 POP POP POP SWAP4 SWAP3 POP POP POP JUMP JUMPDEST PUSH0 DUP2 SWAP1 POP SWAP2 SWAP1 POP JUMP JUMPDEST PUSH0 DUP2 SWAP1 POP SWAP2 SWAP1 POP JUMP JUMPDEST PUSH0 PUSH2 0x198 PUSH2 0x193 PUSH2 0x18E DUP5 PUSH2 0x16C JUMP JUMPDEST PUSH2 0x175 JUMP JUMPDEST PUSH2 0x16C JUMP JUMPDEST SWAP1 POP SWAP2 SWAP1 POP JUMP JUMPDEST PUSH0 DUP2 SWAP1 POP SWAP2 SWAP1 POP JUMP JUMPDEST PUSH2 0x1B1 DUP4 PUSH2 0x17E JUMP JUMPDEST PUSH2 0x1C5 PUSH2 0x1BD DUP3 PUSH2 0x19F JUMP JUMPDEST DUP5 DUP5 SLOAD PUSH2 0x11B JUMP JUMPDEST DUP3 SSTORE POP POP POP POP JUMP JUMPDEST PUSH0 SWAP1 JUMP JUMPDEST PUSH2 0x1D9 PUSH2 0x1CD JUMP JUMPDEST PUSH2 0x1E4 DUP2 DUP5 DUP5 PUSH2 0x1A8 JUMP JUMPDEST POP POP POP JUMP JUMPDEST JUMPDEST DUP2 DUP2 LT ISZERO PUSH2 0x207 JUMPI PUSH2 0x1FC PUSH0 DUP3 PUSH2 0x1D1 JUMP JUMPDEST PUSH1 0x1 DUP2 ADD SWAP1 POP PUSH2 0x1EA JUMP JUMPDEST POP POP JUMP JUMPDEST PUSH1 0x1F DUP3 GT ISZERO PUSH2 0x24C JUMPI PUSH2 0x21D DUP2 PUSH2 0xEE JUMP JUMPDEST PUSH2 0x226 DUP5 PUSH2 0x100 JUMP JUMPDEST DUP2 ADD PUSH1 0x20 DUP6 LT ISZERO PUSH2 0x235 JUMPI DUP2 SWAP1 POP JUMPDEST PUSH2 0x249 PUSH2 0x241 DUP6 PUSH2 0x100 JUMP JUMPDEST DUP4 ADD DUP3 PUSH2 0x1E9 JUMP JUMPDEST POP POP JUMPDEST POP POP POP JUMP JUMPDEST PUSH0 DUP3 DUP3 SHR SWAP1 POP SWAP3 SWAP2 POP POP JUMP JUMPDEST PUSH0 PUSH2 0x26C PUSH0 NOT DUP5 PUSH1 0x8 MUL PUSH2 0x251 JUMP JUMPDEST NOT DUP1 DUP4 AND SWAP2 POP POP SWAP3 SWAP2 POP POP JUMP JUMPDEST PUSH0 PUSH2 0x284 DUP4 DUP4 PUSH2 0x25D JUMP JUMPDEST SWAP2 POP DUP3 PUSH1 0x2 MUL DUP3 OR SWAP1 POP SWAP3 SWAP2 POP POP JUMP JUMPDEST PUSH2 0x29D DUP3 PUSH2 0x5A JUMP JUMPDEST PUSH8 0xFFFFFFFFFFFFFFFF DUP2 GT ISZERO PUSH2 0x2B6 JUMPI PUSH2 0x2B5 PUSH2 0x64 JUMP JUMPDEST JUMPDEST PUSH2 0x2C0 DUP3 SLOAD PUSH2 0xBE JUMP JUMPDEST PUSH2 0x2CB DUP3 DUP3 DUP6 PUSH2 0x20B JUMP JUMPDEST PUSH0 PUSH1 0x20 SWAP1 POP PUSH1 0x1F DUP4 GT PUSH1 0x1 DUP2 EQ PUSH2 0x2FC JUMPI PUSH0 DUP5 ISZERO PUSH2 0x2EA JUMPI DUP3 DUP8 ADD MLOAD SWAP1 POP JUMPDEST PUSH2 0x2F4 DUP6 DUP3 PUSH2 0x279 JUMP JUMPDEST DUP7 SSTORE POP PUSH2 0x35B JUMP JUMPDEST PUSH1 0x1F NOT DUP5 AND PUSH2 0x30A DUP7 PUSH2 0xEE JUMP JUMPDEST PUSH0 JUMPDEST DUP3 DUP2 LT ISZERO PUSH2 0x331 JUMPI DUP5 DUP10 ADD MLOAD DUP3 SSTORE PUSH1 0x1 DUP3 ADD SWAP2 POP PUSH1 0x20 DUP6 ADD SWAP5 POP PUSH1 0x20 DUP2 ADD SWAP1 POP PUSH2 0x30C JUMP JUMPDEST DUP7 DUP4 LT ISZERO PUSH2 0x34E JUMPI DUP5 DUP10 ADD MLOAD PUSH2 0x34A PUSH1 0x1F DUP10 AND DUP3 PUSH2 0x25D JUMP JUMPDEST DUP4 SSTORE POP JUMPDEST PUSH1 0x1 PUSH1 0x2 DUP9 MUL ADD DUP9 SSTORE POP POP POP JUMPDEST POP POP POP POP POP POP JUMP JUMPDEST PUSH2 0x10E8 DUP1 PUSH2 0x370 PUSH0 CODECOPY PUSH0 RETURN INVALID PUSH1 0x80 PUSH1 0x40 MSTORE CALLVALUE DUP1 ISZERO PUSH2 0xF JUMPI PUSH0 DUP1 REVERT JUMPDEST POP PUSH1 0x4 CALLDATASIZE LT PUSH2 0x55 JUMPI PUSH0 CALLDATALOAD PUSH1 0xE0 SHR DUP1 PUSH4 0x23B872DD EQ PUSH2 0x59 JUMPI DUP1 PUSH4 0x6352211E EQ PUSH2 0x75 JUMPI DUP1 PUSH4 0xA0712D68 EQ PUSH2 0xA5 JUMPI DUP1 PUSH4 0xA22CB465 EQ PUSH2 0xC1 JUMPI DUP1 PUSH4 0xC87B56DD EQ PUSH2 0xDD JUMPI JUMPDEST PUSH0 DUP1 REVERT JUMPDEST PUSH2 0x73 PUSH1 0x4 DUP1 CALLDATASIZE SUB DUP2 ADD SWAP1 PUSH2 0x6E SWAP2 SWAP1 PUSH2 0xA39 JUMP JUMPDEST PUSH2 0x10D JUMP JUMPDEST STOP JUMPDEST PUSH2 0x8F PUSH1 0x4 DUP1 CALLDATASIZE SUB DUP2 ADD SWAP1 PUSH2 0x8A SWAP2 SWAP1 PUSH2 0xA89 JUMP JUMPDEST PUSH2 0x423 JUMP JUMPDEST PUSH1 0x40 MLOAD PUSH2 0x9C SWAP2 SWAP1 PUSH2 0xAC3 JUMP JUMPDEST PUSH1 0x40 MLOAD DUP1 SWAP2 SUB SWAP1 RETURN JUMPDEST PUSH2 0xBF PUSH1 0x4 DUP1 CALLDATASIZE SUB DUP2 ADD SWAP1 PUSH2 0xBA SWAP2 SWAP1 PUSH2 0xA89 JUMP JUMPDEST PUSH2 0x4F8 JUMP JUMPDEST STOP JUMPDEST PUSH2 0xDB PUSH1 0x4 DUP1 CALLDATASIZE SUB DUP2 ADD SWAP1 PUSH2 0xD6 SWAP2 SWAP1 PUSH2 0xB11 JUMP JUMPDEST PUSH2 0x629 JUMP JUMPDEST STOP JUMPDEST PUSH2 0xF7 PUSH1 0x4 DUP1 CALLDATASIZE SUB DUP2 ADD SWAP1 PUSH2 0xF2 SWAP2 SWAP1 PUSH2 0xA89 JUMP JUMPDEST PUSH2 0x6BC JUMP JUMPDEST PUSH1 0x40 MLOAD PUSH2 0x104 SWAP2 SWAP1 PUSH2 0xBBF JUMP JUMPDEST PUSH1 0x40 MLOAD DUP1 SWAP2 SUB SWAP1 RETURN JUMPDEST PUSH0 PUSH20 0xFFFFFFFFFFFFFFFFFFFFFFFFFFFFFFFFFFFFFFFF AND PUSH0 DUP1 DUP4 DUP2 MSTORE PUSH1 0x20 ADD SWAP1 DUP2 MSTORE PUSH1 0x20 ADD PUSH0 KECCAK256 PUSH0 SWAP1 SLOAD SWAP1 PUSH2 0x100 EXP SWAP1 DIV PUSH20 0xFFFFFFFFFFFFFFFFFFFFFFFFFFFFFFFFFFFFFFFF AND PUSH20 0xFFFFFFFFFFFFFFFFFFFFFFFFFFFFFFFFFFFFFFFF AND SUB PUSH2 0x1AA JUMPI PUSH1 0x40 MLOAD PUSH32 0x8C379A000000000000000000000000000000000000000000000000000000000 DUP2 MSTORE PUSH1 0x4 ADD PUSH2 0x1A1 SWAP1 PUSH2 0xC29 JUMP JUMPDEST PUSH1 0x40 MLOAD DUP1 SWAP2 SUB SWAP1 REVERT JUMPDEST DUP3 PUSH20 0xFFFFFFFFFFFFFFFFFFFFFFFFFFFFFFFFFFFFFFFF AND PUSH0 DUP1 DUP4 DUP2 MSTORE PUSH1 0x20 ADD SWAP1 DUP2 MSTORE PUSH1 0x20 ADD PUSH0 KECCAK256 PUSH0 SWAP1 SLOAD SWAP1 PUSH2 0x100 EXP SWAP1 DIV PUSH20 0xFFFFFFFFFFFFFFFFFFFFFFFFFFFFFFFFFFFFFFFF AND PUSH20 0xFFFFFFFFFFFFFFFFFFFFFFFFFFFFFFFFFFFFFFFF AND EQ PUSH2 0x247 JUMPI PUSH1 0x40 MLOAD PUSH32 0x8C379A000000000000000000000000000000000000000000000000000000000 DUP2 MSTORE PUSH1 0x4 ADD PUSH2 0x23E SWAP1 PUSH2 0xC91 JUMP JUMPDEST PUSH1 0x40 MLOAD DUP1 SWAP2 SUB SWAP1 REVERT JUMPDEST DUP3 PUSH20 0xFFFFFFFFFFFFFFFFFFFFFFFFFFFFFFFFFFFFFFFF AND CALLER PUSH20 0xFFFFFFFFFFFFFFFFFFFFFFFFFFFFFFFFFFFFFFFF AND EQ DUP1 PUSH2 0x302 JUMPI POP PUSH1 0x1 PUSH0 DUP5 PUSH20 0xFFFFFFFFFFFFFFFFFFFFFFFFFFFFFFFFFFFFFFFF AND PUSH20 0xFFFFFFFFFFFFFFFFFFFFFFFFFFFFFFFFFFFFFFFF AND DUP2 MSTORE PUSH1 0x20 ADD SWAP1 DUP2 MSTORE PUSH1 0x20 ADD PUSH0 KECCAK256 PUSH0 CALLER PUSH20 0xFFFFFFFFFFFFFFFFFFFFFFFFFFFFFFFFFFFFFFFF AND PUSH20 0xFFFFFFFFFFFFFFFFFFFFFFFFFFFFFFFFFFFFFFFF AND DUP2 MSTORE PUSH1 0x20 ADD SWAP1 DUP2 MSTORE PUSH1 0x20 ADD PUSH0 KECCAK256 PUSH0 SWAP1 SLOAD SWAP1 PUSH2 0x100 EXP SWAP1 DIV PUSH1 0xFF AND JUMPDEST PUSH2 0x341 JUMPI PUSH1 0x40 MLOAD PUSH32 0x8C379A000000000000000000000000000000000000000000000000000000000 DUP2 MSTORE PUSH1 0x4 ADD PUSH2 0x338 SWAP1 PUSH2 0xCF9 JUMP JUMPDEST PUSH1 0x40 MLOAD DUP1 SWAP2 SUB SWAP1 REVERT JUMPDEST PUSH0 PUSH1 0x1 PUSH0 DUP6 PUSH20 0xFFFFFFFFFFFFFFFFFFFFFFFFFFFFFFFFFFFFFFFF AND PUSH20 0xFFFFFFFFFFFFFFFFFFFFFFFFFFFFFFFFFFFFFFFF AND DUP2 MSTORE PUSH1 0x20 ADD SWAP1 DUP2 MSTORE PUSH1 0x20 ADD PUSH0 KECCAK256 PUSH0 CALLER PUSH20 0xFFFFFFFFFFFFFFFFFFFFFFFFFFFFFFFFFFFFFFFF AND PUSH20 0xFFFFFFFFFFFFFFFFFFFFFFFFFFFFFFFFFFFFFFFF AND DUP2 MSTORE PUSH1 0x20 ADD SWAP1 DUP2 MSTORE PUSH1 0x20 ADD PUSH0 KECCAK256 PUSH0 PUSH2 0x100 EXP DUP2 SLOAD DUP2 PUSH1 0xFF MUL NOT AND SWAP1 DUP4 ISZERO ISZERO MUL OR SWAP1 SSTORE POP DUP2 PUSH0 DUP1 DUP4 DUP2 MSTORE PUSH1 0x20 ADD SWAP1 DUP2 MSTORE PUSH1 0x20 ADD PUSH0 KECCAK256 PUSH0 PUSH2 0x100 EXP DUP2 SLOAD DUP2 PUSH20 0xFFFFFFFFFFFFFFFFFFFFFFFFFFFFFFFFFFFFFFFF MUL NOT AND SWAP1 DUP4 PUSH20 0xFFFFFFFFFFFFFFFFFFFFFFFFFFFFFFFFFFFFFFFF AND MUL OR SWAP1 SSTORE POP POP POP POP JUMP JUMPDEST PUSH0 DUP1 PUSH20 0xFFFFFFFFFFFFFFFFFFFFFFFFFFFFFFFFFFFFFFFF AND PUSH0 DUP1 DUP5 DUP2 MSTORE PUSH1 0x20 ADD SWAP1 DUP2 MSTORE PUSH1 0x20 ADD PUSH0 KECCAK256 PUSH0 SWAP1 SLOAD SWAP1 PUSH2 0x100 EXP SWAP1 DIV PUSH20 0xFFFFFFFFFFFFFFFFFFFFFFFFFFFFFFFFFFFFFFFF AND PUSH20 0xFFFFFFFFFFFFFFFFFFFFFFFFFFFFFFFFFFFFFFFF AND SUB PUSH2 0x4C1 JUMPI PUSH1 0x40 MLOAD PUSH32 0x8C379A000000000000000000000000000000000000000000000000000000000 DUP2 MSTORE PUSH1 0x4 ADD PUSH2 0x4B8 SWAP1 PUSH2 0xD61 JUMP JUMPDEST PUSH1 0x40 MLOAD DUP1 SWAP2 SUB SWAP1 REVERT JUMPDEST PUSH0 DUP1 DUP4 DUP2 MSTORE PUSH1 0x20 ADD SWAP1 DUP2 MSTORE PUSH1 0x20 ADD PUSH0 KECCAK256 PUSH0 SWAP1 SLOAD SWAP1 PUSH2 0x100 EXP SWAP1 DIV PUSH20 0xFFFFFFFFFFFFFFFFFFFFFFFFFFFFFFFFFFFFFFFF AND SWAP1 POP SWAP2 SWAP1 POP JUMP JUMPDEST PUSH0 PUSH20 0xFFFFFFFFFFFFFFFFFFFFFFFFFFFFFFFFFFFFFFFF AND PUSH0 DUP1 DUP4 DUP2 MSTORE PUSH1 0x20 ADD SWAP1 DUP2 MSTORE PUSH1 0x20 ADD PUSH0 KECCAK256 PUSH0 SWAP1 SLOAD SWAP1 PUSH2 0x100 EXP SWAP1 DIV PUSH20 0xFFFFFFFFFFFFFFFFFFFFFFFFFFFFFFFFFFFFFFFF AND PUSH20 0xFFFFFFFFFFFFFFFFFFFFFFFFFFFFFFFFFFFFFFFF AND EQ PUSH2 0x595 JUMPI PUSH1 0x40 MLOAD PUSH32 0x8C379A000000000000000000000000000000000000000000000000000000000 DUP2 MSTORE PUSH1 0x4 ADD PUSH2 0x58C SWAP1 PUSH2 0xDC9 JUMP JUMPDEST PUSH1 0x40 MLOAD DUP1 SWAP2 SUB SWAP1 REVERT JUMPDEST PUSH1 0x64 DUP2 LT PUSH2 0x5D8 JUMPI PUSH1 0x40 MLOAD PUSH32 0x8C379A000000000000000000000000000000000000000000000000000000000 DUP2 MSTORE PUSH1 0x4 ADD PUSH2 0x5CF SWAP1 PUSH2 0xE31 JUMP JUMPDEST PUSH1 0x40 MLOAD DUP1 SWAP2 SUB SWAP1 REVERT JUMPDEST CALLER PUSH0 DUP1 DUP4 DUP2 MSTORE PUSH1 0x20 ADD SWAP1 DUP2 MSTORE PUSH1 0x20 ADD PUSH0 KECCAK256 PUSH0 PUSH2 0x100 EXP DUP2 SLOAD DUP2 PUSH20 0xFFFFFFFFFFFFFFFFFFFFFFFFFFFFFFFFFFFFFFFF MUL NOT AND SWAP1 DUP4 PUSH20 0xFFFFFFFFFFFFFFFFFFFFFFFFFFFFFFFFFFFFFFFF AND MUL OR SWAP1 SSTORE POP POP JUMP JUMPDEST DUP1 PUSH1 0x1 PUSH0 CALLER PUSH20 0xFFFFFFFFFFFFFFFFFFFFFFFFFFFFFFFFFFFFFFFF AND PUSH20 0xFFFFFFFFFFFFFFFFFFFFFFFFFFFFFFFFFFFFFFFF AND DUP2 MSTORE PUSH1 0x20 ADD SWAP1 DUP2 MSTORE PUSH1 0x20 ADD PUSH0 KECCAK256 PUSH0 DUP5 PUSH20 0xFFFFFFFFFFFFFFFFFFFFFFFFFFFFFFFFFFFFFFFF AND PUSH20 0xFFFFFFFFFFFFFFFFFFFFFFFFFFFFFFFFFFFFFFFF AND DUP2 MSTORE PUSH1 0x20 ADD SWAP1 DUP2 MSTORE PUSH1 0x20 ADD PUSH0 KECCAK256 PUSH0 PUSH2 0x100 EXP DUP2 SLOAD DUP2 PUSH1 0xFF MUL NOT AND SWAP1 DUP4 ISZERO ISZERO MUL OR SWAP1 SSTORE POP POP POP JUMP JUMPDEST PUSH1 0x60 PUSH0 PUSH20 0xFFFFFFFFFFFFFFFFFFFFFFFFFFFFFFFFFFFFFFFF AND PUSH0 DUP1 DUP5 DUP2 MSTORE PUSH1 0x20 ADD SWAP1 DUP2 MSTORE PUSH1 0x20 ADD PUSH0 KECCAK256 PUSH0 SWAP1 SLOAD SWAP1 PUSH2 0x100 EXP SWAP1 DIV PUSH20 0xFFFFFFFFFFFFFFFFFFFFFFFFFFFFFFFFFFFFFFFF AND PUSH20 0xFFFFFFFFFFFFFFFFFFFFFFFFFFFFFFFFFFFFFFFF AND SUB PUSH2 0x75B JUMPI PUSH1 0x40 MLOAD PUSH32 0x8C379A000000000000000000000000000000000000000000000000000000000 DUP2 MSTORE PUSH1 0x4 ADD PUSH2 0x752 SWAP1 PUSH2 0xE99 JUMP JUMPDEST PUSH1 0x40 MLOAD DUP1 SWAP2 SUB SWAP1 REVERT JUMPDEST PUSH1 0x2 PUSH2 0x766 DUP4 PUSH2 0x78D JUMP JUMPDEST PUSH1 0x40 MLOAD PUSH1 0x20 ADD PUSH2 0x777 SWAP3 SWAP2 SWAP1 PUSH2 0x102A JUMP JUMPDEST PUSH1 0x40 MLOAD PUSH1 0x20 DUP2 DUP4 SUB SUB DUP2 MSTORE SWAP1 PUSH1 0x40 MSTORE SWAP1 POP SWAP2 SWAP1 POP JUMP JUMPDEST PUSH1 0x60 PUSH0 PUSH1 0x1 PUSH2 0x79B DUP5 PUSH2 0x857 JUMP JUMPDEST ADD SWAP1 POP PUSH0 DUP2 PUSH8 0xFFFFFFFFFFFFFFFF DUP2 GT ISZERO PUSH2 0x7B9 JUMPI PUSH2 0x7B8 PUSH2 0x1058 JUMP JUMPDEST JUMPDEST PUSH1 0x40 MLOAD SWAP1 DUP1 DUP3 MSTORE DUP1 PUSH1 0x1F ADD PUSH1 0x1F NOT AND PUSH1 0x20 ADD DUP3 ADD PUSH1 0x40 MSTORE DUP1 ISZERO PUSH2 0x7EB JUMPI DUP2 PUSH1 0x20 ADD PUSH1 0x1 DUP3 MUL DUP1 CALLDATASIZE DUP4 CALLDATACOPY DUP1 DUP3 ADD SWAP2 POP POP SWAP1 POP JUMPDEST POP SWAP1 POP PUSH0 DUP3 PUSH1 0x20 ADD DUP3 ADD SWAP1 POP JUMPDEST PUSH1 0x1 ISZERO PUSH2 0x84C JUMPI DUP1 DUP1 PUSH1 0x1 SWAP1 SUB SWAP2 POP POP PUSH32 0x3031323334353637383961626364656600000000000000000000000000000000 PUSH1 0xA DUP7 MOD BYTE DUP2 MSTORE8 PUSH1 0xA DUP6 DUP2 PUSH2 0x841 JUMPI PUSH2 0x840 PUSH2 0x1085 JUMP JUMPDEST JUMPDEST DIV SWAP5 POP PUSH0 DUP6 SUB PUSH2 0x7F8 JUMPI JUMPDEST DUP2 SWAP4 POP POP POP POP SWAP2 SWAP1 POP JUMP JUMPDEST PUSH0 DUP1 PUSH0 SWAP1 POP PUSH27 0x184F03E93FF9F4DAA797ED6E38ED64BF6A1F010000000000000000 DUP4 LT PUSH2 0x8B3 JUMPI PUSH27 0x184F03E93FF9F4DAA797ED6E38ED64BF6A1F010000000000000000 DUP4 DUP2 PUSH2 0x8A9 JUMPI PUSH2 0x8A8 PUSH2 0x1085 JUMP JUMPDEST JUMPDEST DIV SWAP3 POP PUSH1 0x40 DUP2 ADD SWAP1 POP JUMPDEST PUSH14 0x4EE2D6D415B85ACEF8100000000 DUP4 LT PUSH2 0x8F0 JUMPI PUSH14 0x4EE2D6D415B85ACEF8100000000 DUP4 DUP2 PUSH2 0x8E6 JUMPI PUSH2 0x8E5 PUSH2 0x1085 JUMP JUMPDEST JUMPDEST DIV SWAP3 POP PUSH1 0x20 DUP2 ADD SWAP1 POP JUMPDEST PUSH7 0x2386F26FC10000 DUP4 LT PUSH2 0x91F JUMPI PUSH7 0x2386F26FC10000 DUP4 DUP2 PUSH2 0x915 JUMPI PUSH2 0x914 PUSH2 0x1085 JUMP JUMPDEST JUMPDEST DIV SWAP3 POP PUSH1 0x10 DUP2 ADD SWAP1 POP JUMPDEST PUSH4 0x5F5E100 DUP4 LT PUSH2 0x948 JUMPI PUSH4 0x5F5E100 DUP4 DUP2 PUSH2 0x93E JUMPI PUSH2 0x93D PUSH2 0x1085 JUMP JUMPDEST JUMPDEST DIV SWAP3 POP PUSH1 0x8 DUP2 ADD SWAP1 POP JUMPDEST PUSH2 0x2710 DUP4 LT PUSH2 0x96D JUMPI PUSH2 0x2710 DUP4 DUP2 PUSH2 0x963 JUMPI PUSH2 0x962 PUSH2 0x1085 JUMP JUMPDEST JUMPDEST DIV SWAP3 POP PUSH1 0x4 DUP2 ADD SWAP1 POP JUMPDEST PUSH1 0x64 DUP4 LT PUSH2 0x990 JUMPI PUSH1 0x64 DUP4 DUP2 PUSH2 0x986 JUMPI PUSH2 0x985 PUSH2 0x1085 JUMP JUMPDEST JUMPDEST DIV SWAP3 POP PUSH1 0x2 DUP2 ADD SWAP1 POP JUMPDEST PUSH1 0xA DUP4 LT PUSH2 0x99F JUMPI PUSH1 0x1 DUP2 ADD SWAP1 POP JUMPDEST DUP1 SWAP2 POP POP SWAP2 SWAP1 POP JUMP JUMPDEST PUSH0 DUP1 REVERT JUMPDEST PUSH0 PUSH20 0xFFFFFFFFFFFFFFFFFFFFFFFFFFFFFFFFFFFFFFFF DUP3 AND SWAP1 POP SWAP2 SWAP1 POP JUMP JUMPDEST PUSH0 PUSH2 0x9D5 DUP3 PUSH2 0x9AC JUMP JUMPDEST SWAP1 POP SWAP2 SWAP1 POP JUMP JUMPDEST PUSH2 0x9E5 DUP2 PUSH2 0x9CB JUMP JUMPDEST DUP2 EQ PUSH2 0x9EF JUMPI PUSH0 DUP1 REVERT JUMPDEST POP JUMP JUMPDEST PUSH0 DUP2 CALLDATALOAD SWAP1 POP PUSH2 0xA00 DUP2 PUSH2 0x9DC JUMP JUMPDEST SWAP3 SWAP2 POP POP JUMP JUMPDEST PUSH0 DUP2 SWAP1 POP SWAP2 SWAP1 POP JUMP JUMPDEST PUSH2 0xA18 DUP2 PUSH2 0xA06 JUMP JUMPDEST DUP2 EQ PUSH2 0xA22 JUMPI PUSH0 DUP1 REVERT JUMPDEST POP JUMP JUMPDEST PUSH0 DUP2 CALLDATALOAD SWAP1 POP PUSH2 0xA33 DUP2 PUSH2 0xA0F JUMP JUMPDEST SWAP3 SWAP2 POP POP JUMP JUMPDEST PUSH0 DUP1 PUSH0 PUSH1 0x60 DUP5 DUP7 SUB SLT ISZERO PUSH2 0xA50 JUMPI PUSH2 0xA4F PUSH2 0x9A8 JUMP JUMPDEST JUMPDEST PUSH0 PUSH2 0xA5D DUP7 DUP3 DUP8 ADD PUSH2 0x9F2 JUMP JUMPDEST SWAP4 POP POP PUSH1 0x20 PUSH2 0xA6E DUP7 DUP3 DUP8 ADD PUSH2 0x9F2 JUMP JUMPDEST SWAP3 POP POP PUSH1 0x40 PUSH2 0xA7F DUP7 DUP3 DUP8 ADD PUSH2 0xA25 JUMP JUMPDEST SWAP2 POP POP SWAP3 POP SWAP3 POP SWAP3 JUMP JUMPDEST PUSH0 PUSH1 0x20 DUP3 DUP5 SUB SLT ISZERO PUSH2 0xA9E JUMPI PUSH2 0xA9D PUSH2 0x9A8 JUMP JUMPDEST JUMPDEST PUSH0 PUSH2 0xAAB DUP5 DUP3 DUP6 ADD PUSH2 0xA25 JUMP JUMPDEST SWAP2 POP POP SWAP3 SWAP2 POP POP JUMP JUMPDEST PUSH2 0xABD DUP2 PUSH2 0x9CB JUMP JUMPDEST DUP3 MSTORE POP POP JUMP JUMPDEST PUSH0 PUSH1 0x20 DUP3 ADD SWAP1 POP PUSH2 0xAD6 PUSH0 DUP4 ADD DUP5 PUSH2 0xAB4 JUMP JUMPDEST SWAP3 SWAP2 POP POP JUMP JUMPDEST PUSH0 DUP2 ISZERO ISZERO SWAP1 POP SWAP2 SWAP1 POP JUMP JUMPDEST PUSH2 0xAF0 DUP2 PUSH2 0xADC JUMP JUMPDEST DUP2 EQ PUSH2 0xAFA JUMPI PUSH0 DUP1 REVERT JUMPDEST POP JUMP JUMPDEST PUSH0 DUP2 CALLDATALOAD SWAP1 POP PUSH2 0xB0B DUP2 PUSH2 0xAE7 JUMP JUMPDEST SWAP3 SWAP2 POP POP JUMP JUMPDEST PUSH0 DUP1 PUSH1 0x40 DUP4 DUP6 SUB SLT ISZERO PUSH2 0xB27 JUMPI PUSH2 0xB26 PUSH2 0x9A8 JUMP JUMPDEST JUMPDEST PUSH0 PUSH2 0xB34 DUP6 DUP3 DUP7 ADD PUSH2 0x9F2 JUMP JUMPDEST SWAP3 POP POP PUSH1 0x20 PUSH2 0xB45 DUP6 DUP3 DUP7 ADD PUSH2 0xAFD JUMP JUMPDEST SWAP2 POP POP SWAP3 POP SWAP3 SWAP1 POP JUMP JUMPDEST PUSH0 DUP2 MLOAD SWAP1 POP SWAP2 SWAP1 POP JUMP JUMPDEST PUSH0 DUP3 DUP3 MSTORE PUSH1 0x20 DUP3 ADD SWAP1 POP SWAP3 SWAP2 POP POP JUMP JUMPDEST DUP3 DUP2 DUP4 MCOPY PUSH0 DUP4 DUP4 ADD MSTORE POP POP POP JUMP JUMPDEST PUSH0 PUSH1 0x1F NOT PUSH1 0x1F DUP4 ADD AND SWAP1 POP SWAP2 SWAP1 POP JUMP JUMPDEST PUSH0 PUSH2 0xB91 DUP3 PUSH2 0xB4F JUMP JUMPDEST PUSH2 0xB9B DUP2 DUP6 PUSH2 0xB59 JUMP JUMPDEST SWAP4 POP PUSH2 0xBAB DUP2 DUP6 PUSH1 0x20 DUP7 ADD PUSH2 0xB69 JUMP JUMPDEST PUSH2 0xBB4 DUP2 PUSH2 0xB77 JUMP JUMPDEST DUP5 ADD SWAP2 POP POP SWAP3 SWAP2 POP POP JUMP JUMPDEST PUSH0 PUSH1 0x20 DUP3 ADD SWAP1 POP DUP2 DUP2 SUB PUSH0 DUP4 ADD MSTORE PUSH2 0xBD7 DUP2 DUP5 PUSH2 0xB87 JUMP JUMPDEST SWAP1 POP SWAP3 SWAP2 POP POP JUMP JUMPDEST PUSH32 0x546F6B656E206973206E6F7420796F7572730000000000000000000000000000 PUSH0 DUP3 ADD MSTORE POP JUMP JUMPDEST PUSH0 PUSH2 0xC13 PUSH1 0x12 DUP4 PUSH2 0xB59 JUMP JUMPDEST SWAP2 POP PUSH2 0xC1E DUP3 PUSH2 0xBDF JUMP JUMPDEST PUSH1 0x20 DUP3 ADD SWAP1 POP SWAP2 SWAP1 POP JUMP JUMPDEST PUSH0 PUSH1 0x20 DUP3 ADD SWAP1 POP DUP2 DUP2 SUB PUSH0 DUP4 ADD MSTORE PUSH2 0xC40 DUP2 PUSH2 0xC07 JUMP JUMPDEST SWAP1 POP SWAP2 SWAP1 POP JUMP JUMPDEST PUSH32 0x43616E6E6F74205472616E736665720000000000000000000000000000000000 PUSH0 DUP3 ADD MSTORE POP JUMP JUMPDEST PUSH0 PUSH2 0xC7B PUSH1 0xF DUP4 PUSH2 0xB59 JUMP JUMPDEST SWAP2 POP PUSH2 0xC86 DUP3 PUSH2 0xC47 JUMP JUMPDEST PUSH1 0x20 DUP3 ADD SWAP1 POP SWAP2 SWAP1 POP JUMP JUMPDEST PUSH0 PUSH1 0x20 DUP3 ADD SWAP1 POP DUP2 DUP2 SUB PUSH0 DUP4 ADD MSTORE PUSH2 0xCA8 DUP2 PUSH2 0xC6F JUMP JUMPDEST SWAP1 POP SWAP2 SWAP1 POP JUMP JUMPDEST PUSH32 0x5265717569726520746865204F776E6572000000000000000000000000000000 PUSH0 DUP3 ADD MSTORE POP JUMP JUMPDEST PUSH0 PUSH2 0xCE3 PUSH1 0x11 DUP4 PUSH2 0xB59 JUMP JUMPDEST SWAP2 POP PUSH2 0xCEE DUP3 PUSH2 0xCAF JUMP JUMPDEST PUSH1 0x20 DUP3 ADD SWAP1 POP SWAP2 SWAP1 POP JUMP JUMPDEST PUSH0 PUSH1 0x20 DUP3 ADD SWAP1 POP DUP2 DUP2 SUB PUSH0 DUP4 ADD MSTORE PUSH2 0xD10 DUP2 PUSH2 0xCD7 JUMP JUMPDEST SWAP1 POP SWAP2 SWAP1 POP JUMP JUMPDEST PUSH32 0x4E6F207375636820746F6B656E00000000000000000000000000000000000000 PUSH0 DUP3 ADD MSTORE POP JUMP JUMPDEST PUSH0 PUSH2 0xD4B PUSH1 0xD DUP4 PUSH2 0xB59 JUMP JUMPDEST SWAP2 POP PUSH2 0xD56 DUP3 PUSH2 0xD17 JUMP JUMPDEST PUSH1 0x20 DUP3 ADD SWAP1 POP SWAP2 SWAP1 POP JUMP JUMPDEST PUSH0 PUSH1 0x20 DUP3 ADD SWAP1 POP DUP2 DUP2 SUB PUSH0 DUP4 ADD MSTORE PUSH2 0xD78 DUP2 PUSH2 0xD3F JUMP JUMPDEST SWAP1 POP SWAP2 SWAP1 POP JUMP JUMPDEST PUSH32 0x416C7265616479204D696E746564000000000000000000000000000000000000 PUSH0 DUP3 ADD MSTORE POP JUMP JUMPDEST PUSH0 PUSH2 0xDB3 PUSH1 0xE DUP4 PUSH2 0xB59 JUMP JUMPDEST SWAP2 POP PUSH2 0xDBE DUP3 PUSH2 0xD7F JUMP JUMPDEST PUSH1 0x20 DUP3 ADD SWAP1 POP SWAP2 SWAP1 POP JUMP JUMPDEST PUSH0 PUSH1 0x20 DUP3 ADD SWAP1 POP DUP2 DUP2 SUB PUSH0 DUP4 ADD MSTORE PUSH2 0xDE0 DUP2 PUSH2 0xDA7 JUMP JUMPDEST SWAP1 POP SWAP2 SWAP1 POP JUMP JUMPDEST PUSH32 0x546F6B656E20496420697320746F6F204C617267650000000000000000000000 PUSH0 DUP3 ADD MSTORE POP JUMP JUMPDEST PUSH0 PUSH2 0xE1B PUSH1 0x15 DUP4 PUSH2 0xB59 JUMP JUMPDEST SWAP2 POP PUSH2 0xE26 DUP3 PUSH2 0xDE7 JUMP JUMPDEST PUSH1 0x20 DUP3 ADD SWAP1 POP SWAP2 SWAP1 POP JUMP JUMPDEST PUSH0 PUSH1 0x20 DUP3 ADD SWAP1 POP DUP2 DUP2 SUB PUSH0 DUP4 ADD MSTORE PUSH2 0xE48 DUP2 PUSH2 0xE0F JUMP JUMPDEST SWAP1 POP SWAP2 SWAP1 POP JUMP JUMPDEST PUSH32 0x446F6573206E6F74206578697374000000000000000000000000000000000000 PUSH0 DUP3 ADD MSTORE POP JUMP JUMPDEST PUSH0 PUSH2 0xE83 PUSH1 0xE DUP4 PUSH2 0xB59 JUMP JUMPDEST SWAP2 POP PUSH2 0xE8E DUP3 PUSH2 0xE4F JUMP JUMPDEST PUSH1 0x20 DUP3 ADD SWAP1 POP SWAP2 SWAP1 POP JUMP JUMPDEST PUSH0 PUSH1 0x20 DUP3 ADD SWAP1 POP DUP2 DUP2 SUB PUSH0 DUP4 ADD MSTORE PUSH2 0xEB0 DUP2 PUSH2 0xE77 JUMP JUMPDEST SWAP1 POP SWAP2 SWAP1 POP JUMP JUMPDEST PUSH32 0x4E487B7100000000000000000000000000000000000000000000000000000000 PUSH0 MSTORE PUSH1 0x22 PUSH1 0x4 MSTORE PUSH1 0x24 PUSH0 REVERT JUMPDEST PUSH0 PUSH1 0x2 DUP3 DIV SWAP1 POP PUSH1 0x1 DUP3 AND DUP1 PUSH2 0xEFB JUMPI PUSH1 0x7F DUP3 AND SWAP2 POP JUMPDEST PUSH1 0x20 DUP3 LT DUP2 SUB PUSH2 0xF0E JUMPI PUSH2 0xF0D PUSH2 0xEB7 JUMP JUMPDEST JUMPDEST POP SWAP2 SWAP1 POP JUMP JUMPDEST PUSH0 DUP2 SWAP1 POP SWAP3 SWAP2 POP POP JUMP JUMPDEST PUSH0 DUP2 SWAP1 POP DUP2 PUSH0 MSTORE PUSH1 0x20 PUSH0 KECCAK256 SWAP1 POP SWAP2 SWAP1 POP JUMP JUMPDEST PUSH0 DUP2 SLOAD PUSH2 0xF3C DUP2 PUSH2 0xEE4 JUMP JUMPDEST PUSH2 0xF46 DUP2 DUP7 PUSH2 0xF14 JUMP JUMPDEST SWAP5 POP PUSH1 0x1 DUP3 AND PUSH0 DUP2 EQ PUSH2 0xF60 JUMPI PUSH1 0x1 DUP2 EQ PUSH2 0xF75 JUMPI PUSH2 0xFA7 JUMP JUMPDEST PUSH1 0xFF NOT DUP4 AND DUP7 MSTORE DUP2 ISZERO ISZERO DUP3 MUL DUP7 ADD SWAP4 POP PUSH2 0xFA7 JUMP JUMPDEST PUSH2 0xF7E DUP6 PUSH2 0xF1E JUMP JUMPDEST PUSH0 JUMPDEST DUP4 DUP2 LT ISZERO PUSH2 0xF9F JUMPI DUP2 SLOAD DUP2 DUP10 ADD MSTORE PUSH1 0x1 DUP3 ADD SWAP2 POP PUSH1 0x20 DUP2 ADD SWAP1 POP PUSH2 0xF80 JUMP JUMPDEST DUP4 DUP9 ADD SWAP6 POP POP POP JUMPDEST POP POP POP SWAP3 SWAP2 POP POP JUMP JUMPDEST PUSH0 PUSH2 0xFBA DUP3 PUSH2 0xB4F JUMP JUMPDEST PUSH2 0xFC4 DUP2 DUP6 PUSH2 0xF14 JUMP JUMPDEST SWAP4 POP PUSH2 0xFD4 DUP2 DUP6 PUSH1 0x20 DUP7 ADD PUSH2 0xB69 JUMP JUMPDEST DUP1 DUP5 ADD SWAP2 POP POP SWAP3 SWAP2 POP POP JUMP JUMPDEST PUSH32 0x2E6A706567000000000000000000000000000000000000000000000000000000 PUSH0 DUP3 ADD MSTORE POP JUMP JUMPDEST PUSH0 PUSH2 0x1014 PUSH1 0x5 DUP4 PUSH2 0xF14 JUMP JUMPDEST SWAP2 POP PUSH2 0x101F DUP3 PUSH2 0xFE0 JUMP JUMPDEST PUSH1 0x5 DUP3 ADD SWAP1 POP SWAP2 SWAP1 POP JUMP JUMPDEST PUSH0 PUSH2 0x1035 DUP3 DUP6 PUSH2 0xF30 JUMP JUMPDEST SWAP2 POP PUSH2 0x1041 DUP3 DUP5 PUSH2 0xFB0 JUMP JUMPDEST SWAP2 POP PUSH2 0x104C DUP3 PUSH2 0x1008 JUMP JUMPDEST SWAP2 POP DUP2 SWAP1 POP SWAP4 SWAP3 POP POP POP JUMP JUMPDEST PUSH32 0x4E487B7100000000000000000000000000000000000000000000000000000000 PUSH0 MSTORE PUSH1 0x41 PUSH1 0x4 MSTORE PUSH1 0x24 PUSH0 REVERT JUMPDEST PUSH32 0x4E487B7100000000000000000000000000000000000000000000000000000000 PUSH0 MSTORE PUSH1 0x12 PUSH1 0x4 MSTORE PUSH1 0x24 PUSH0 REVERT INVALID LOG2 PUSH5 0x6970667358 0x22 SLT KECCAK256 0xE6 0xBF 0xD7 0xEE LOG1 SWAP8 EXP EXP SWAP7 0xE1 ADDRESS AND DUP7 0xF7 0x26 LOG0 PUSH31 0x792A73FFC4539A679882566954188764736F6C634300081A00330000000000 "
				},
				"gasEstimates": {
					"creation": {
						"codeDepositCost": "865600",
						"executionCost": "infinite",
						"totalCost": "infinite"
					},
					"external": {
						"mint(uint256)": "27032",
						"ownerOf(uint256)": "5098",
						"setApprovalForAll(address,bool)": "25111",
						"tokenURI(uint256)": "infinite",
						"transferFrom(address,address,uint256)": "infinite"
					}
				},
				"methodIdentifiers": {
					"mint(uint256)": "a0712d68",
					"ownerOf(uint256)": "6352211e",
					"setApprovalForAll(address,bool)": "a22cb465",
					"tokenURI(uint256)": "c87b56dd",
					"transferFrom(address,address,uint256)": "23b872dd"
				}
			},
			"storageLayout": {
				"storage": [
					{
						"astId": 4776,
						"contract": "NFTcontract.sol:SimpleNFT",
						"label": "_owners",
						"offset": 0,
						"slot": "0",
						"type": "t_mapping(t_uint256,t_address)"
					},
					{
						"astId": 4782,
						"contract": "NFTcontract.sol:SimpleNFT",
						"label": "_operatorAdd",
						"offset": 0,
						"slot": "1",
						"type": "t_mapping(t_address,t_mapping(t_address,t_bool))"
					},
					{
						"astId": 4785,
						"contract": "NFTcontract.sol:SimpleNFT",
						"label": "baseURL",
						"offset": 0,
						"slot": "2",
						"type": "t_string_storage"
					}
				],
				"types": {
					"t_address": {
						"encoding": "inplace",
						"label": "address",
						"numberOfBytes": "20"
					},
					"t_bool": {
						"encoding": "inplace",
						"label": "bool",
						"numberOfBytes": "1"
					},
					"t_mapping(t_address,t_bool)": {
						"encoding": "mapping",
						"key": "t_address",
						"label": "mapping(address => bool)",
						"numberOfBytes": "32",
						"value": "t_bool"
					},
					"t_mapping(t_address,t_mapping(t_address,t_bool))": {
						"encoding": "mapping",
						"key": "t_address",
						"label": "mapping(address => mapping(address => bool))",
						"numberOfBytes": "32",
						"value": "t_mapping(t_address,t_bool)"
					},
					"t_mapping(t_uint256,t_address)": {
						"encoding": "mapping",
						"key": "t_uint256",
						"label": "mapping(uint256 => address)",
						"numberOfBytes": "32",
						"value": "t_address"
					},
					"t_string_storage": {
						"encoding": "bytes",
						"label": "string",
						"numberOfBytes": "32"
					},
					"t_uint256": {
						"encoding": "inplace",
						"label": "uint256",
						"numberOfBytes": "32"
					}
				}
			},
			"userdoc": {
				"kind": "user",
				"methods": {},
				"version": 1
			}
		}
	}
}